:020000040800F2
:10000000C8060020450100087D3E0008C50D000817
:10001000793E0008170700089D6E000800000000E8
:10002000000000000000000000000000196C000843
:10003000D109000800000000395F00088D6D00083C
:100040005F0100085F0100085F0100085F01000810
:100050005F0100085F0100085F0100085F01000800
:100060005F0100085F0100085F0100085F010008F0
:100070005F0100085F0100085F0100085F010008E0
:100080005F0100085F0100085F0100085F010008D0
:100090005F0100085F0100085F0100085F010008C0
:1000A0005F0100085F0100085F0100085F010008B0
:1000B0005F0100085F0100085F0100085F010008A0
:1000C0005F0100085F0100085F0100085F01000890
:1000D0005F0100085F0100085F0100085F01000880
:1000E0005D0B00085F0100085F0100085F01000868
:1000F0005F0100085F0100085F0100085F01000860
:100100005F0100085F0100085F0100085F0100084F
:100110005F0100085F0100085F0100085F0100083F
:100120005F0100085F0100085F0100085F0100082F
:10013000DFF80CD000F08CFA004800472970000866
:10014000C80600200648804706480047FEE7FEE74D
:10015000FEE7FEE7FEE7FEE7FEE7FEE7FEE7FEE777
:10016000996D0008310100082DE9FE4F804681EAB3
:100170000300C00F0C46009021F0004123F0004521
:10018000B8EB0200A94105D24046214690461C46E4
:100190000B46024623F00040104304D1404621465E
:1001A00003B0BDE8F08F270DC7F30A00C3F30A516F
:1001B0000290401A0190402866DAC3F3130040F41D
:1001C000801B0098924620B10023D2EB030A63EB18
:1001D0000B0B01985946C0F14002504600F09BF8C5
:1001E00006460D4650465946019A00F0B3F810EB0A
:1001F00008006141002487EA115284EAE7731A4338
:100200003BD0009A3AB3019A012A4FEA075210DC18
:10021000001B61EB02014FF0004202EA0752CDE9F8
:100220000042001C41F5801132462B4600F0B1F827
:10023000B6E7001B61EB0201001C41F580130018BA
:100240005B412018A2F5001747EB030140EAD57087
:10025000B6196D4111E06D084FEA360645EAC075E2
:100260004FEA0752001B61EB0201001C41F58011AF
:1002700049084FEA30000019514132462B4603B07D
:10028000BDE8F04F00F078B800980122400000234C
:10029000D0EB020263EBE073009821464FEAE07472
:1002A000B8EB000061EB0401E9E783F000435BE792
:1002B00081F0004158E70EB5C10F80EAE0700844B4
:1002C000CA07002140F233438DE80E000A460B4670
:1002D00000F05FF803B000BD70B5C1F30A5201F041
:1002E00000450024C1F3130140F2FF3341F48011B3
:1002F0009A4201DA002070BD40F233439A42A2F2E2
:10030000334203DC524200F015F800E090402C43E9
:10031000F1D0404270BD202A04DB203A00FA02F1FD
:10032000002070479140C2F1200320FA03F31943E3
:1003300090407047202A04DB203A21FA02F0002185
:10034000704721FA02F3D040C2F1200291400843E5
:1003500019467047202A06DBCB17203A41FA02F0F3
:1003600043EAE07306E041FA02F3D040C2F1200212
:10037000914008431946704710B5002B08DA401C1D
:1003800041F1000192185B411A4301D120F00100B4
:1003900010BD2DE9F04D92469B4611B1B1FA81F2A4
:1003A00002E0B0FA80F220329046FFF7B4FF044634
:1003B0000F4640EA0A0041EA0B0153465A460843F9
:1003C00003D120463946BDE8F08D114653EA0100BD
:1003D00015D0C8F140025046FFF7ACFF05460E4667
:1003E000504659464246FFF796FF084301D0012088
:1003F00000E00020054346EAE0762C4337430A98A4
:100400004FEA4453A0EB08004FEAD4240A304FF0DF
:10041000000244EA47544FEAD72502D5002001469E
:10042000D1E7010510196941DDE908450019694165
:10043000BDE8F04DA0E72DE9FE4F81EA030404F08A
:10044000004421F0004100944FF0000B23F00043E2
:1004500050EA010402D052EA030404D1002001460C
:1004600003B0BDE8F08FC3F30A54C1F30A552C441E
:10047000A4F2F3340194A0FB0254C1F3130141F43C
:100480008011C3F3130343F4801301FB024400FB08
:10049000034E840A970A44EA815447EA8357A4FB2F
:1004A000076802958D0A05FB07854FEA932C04FB2C
:1004B0000C542705029D4FEA065847EA1637B5EB5C
:1004C00008056EEB070C870E920E47EA811742EA89
:1004D0008312A7FB0201B6EB0B0164EB00042B0DAA
:1004E00043EA0C335E1844EB1C50DA465146E7FBF6
:1004F0000201C5F313044FEA0B3343EA14534FEAE6
:100500000432019C43EA0603A4F10C040294009C0B
:10051000CDE900B4FFF73DFFA2E72DE9F04D81EAF8
:10052000030404F0004B21F0004514464FF0000A8C
:1005300023F0004150EA050220D054EA01021DD008
:10054000C5F30A570246C5F31303C1F31300C1F301
:100550000A5640F4801543F48013A7EB0608101BDD
:10056000D64608F2FD3873EB050002D308F1010806
:1005700001E092185B41B8F1000F03DA0020014658
:10058000BDE8F08D00204FF48011064684460EE051
:10059000171B73EB050705D3121B63EB050306431B
:1005A0004CEA010C49084FEA300092185B4150EACE
:1005B0000107EDD152EA030012D082EA040083EA77
:1005C0000501084303D100224FF0004308E0101B4F
:1005D000AB4102D20122002302E06FF0010253106E
:1005E0001AEB06004CEB085110EB0A0041EB0B0133
:1005F000BDE8F04DFFF7C0BE70B521F000430343E6
:100600000CD0C1F30A550024D5EB040564EB0403B8
:10061000D617AD1AB34102DB0020014670BD201889
:1006200041EB025170BD000030B5002904DB4FF0F2
:100630000044404264EB0101002B04DB4FF0004416
:10064000524264EB0303994208BF904230BD000060
:10065000064C074D06E0E06840F0010394E807000F
:1006600098471034AC42F6D3FFF766FD58040108F2
:10067000780401082DE9F04D00231A461B1A8A411F
:1006800003DB00200146BDE8F08DC1F30A52C1F33F
:10069000130141F480154FF0000BD10702D100186F
:1006A0006D41521E0027044640F2FF11384601EB0F
:1006B000620A3E468046024600204FF48011FFF752
:1006C00039FEC2197141BB1846EB0100B4EB030CB3
:1006D00075EB000C04D3E41A65EB000517460E46D3
:1006E000241908F101006D4180463428E3DDF91931
:1006F00046EB0600091BA84103D24FF0FF32134618
:1007000001E0002213461BEB070046EB0A51BDE84F
:10071000F04DFFF731BE00BFFEE7000008B5012134
:10072000082005F00BFC4FF4E050ADF8000002206B
:100730008DF8020014208DF803006946084800F087
:10074000A1FA4FF4E050ADF8000003208DF802004C
:1007500048208DF803006946014800F093FA08BD6F
:10076000000C014008B50121102005F0E7FB4FF413
:10077000C050ADF8000048208DF8030003208DF82C
:1007800002006946014800F07DFA08BD00100140F2
:1007900008B50121102005F0D1FB4FF4C060ADF881
:1007A000000010208DF8030002208DF80200694639
:1007B000014800F067FA08BD0010014008B50121AA
:1007C000042005F0BBFBB020ADF8000010208DF830
:1007D000030002208DF802006946084800F052FA32
:1007E0004020ADF8000048208DF8030003208DF86C
:1007F00002006946014800F045FA08BD00080140C2
:1008000008B50121042005F099FB4FF47060ADF8A4
:10081000000048208DF8030003208DF8020069468F
:10082000014800F02FFA08BD0008014008B5012179
:10083000042005F083FB0F20ADF8000010208DF898
:10084000030002208DF802006946024800F01AFAFF
:1008500008BD0000000801401FB50121192005F066
:100860006DFBC020ADF80C0002208DF80E001420A6
:100870008DF80F0003A9244800F004FAC020ADF859
:100880000C0003208DF80E0048208DF80F0003A9FE
:100890001D4800F0F7F94FF40050ADF80C000320AC
:1008A0008DF80E0048208DF80F0003A9174800F0BE
:1008B000E9F94FF4E06003F01DFB28208DF80800F3
:1008C00000208DF809008DF80A0001208DF80B003A
:1008D00002A803F0D5FA00208DF804000C208DF852
:1008E00005004FF40050009001208DF80600684686
:1008F00000F05EF90D21022000F0A4F94FF4005041
:1009000000F03CF91FBD0000000C01400010014048
:1009100008B501213C2005F011FB4FF48050ADF8E3
:10092000000010208DF8030002208DF802006946B7
:10093000234800F0A7F940F22730ADF8000010205E
:100940008DF8030002208DF8020069461D4800F072
:1009500099F9FF20ADF8000048208DF8030003202E
:100960008DF802006946184800F08CF9FF20ADF8B8
:10097000000014208DF8030002208DF80200694663
:10098000114800F07FF94FF48070ADF8000010209E
:100990008DF8030002208DF8020069460A4800F035
:1009A00071F90420ADF8000010208DF8030002203A
:1009B0008DF802006946054800F064F908BD0000A2
:1009C00000080140000C01400010014000140140EB
:1009D0007047000070B5002421E000251BE012489C
:1009E000007800EB4001C1EB8010104901EBC00022
:1009F000C4F1030101EB4102C2EB811105EB41019E
:100A0000405C04EB4401C1EB841105EB4101084A51
:100A10005054681CC5B27A2DE1DB601CC4B2042CB2
:100A2000DBDB00F0BBFE70BD090000204080000849
:100A3000B700002070B5002652E0002422E0002517
:100A40001CE029480078401E00EB4001C1EB8010FB
:100A5000264901EB8000C4F1010101EB4102C2EB28
:100A6000811105EB4101405C04EB4401C1EB8411B1
:100A700005EB41011E4A5054681CC5B27A2DE0DBDB
:100A8000601CC4B2022CDADB022420E000251AE04C
:100A900006EB4600C0EB8610164901EB8001A01E54
:100AA000C0F1010000EB4002C2EB801005EB4000FA
:100AB000085C04EB4401C1EB841105EB41010C4AD5
:100AC0005054681CC5B27A2DE2DB601CC4B2042C01
:100AD000DCDB00F063FE012006F0BFF9701CC6B23B
:100AE000022EAADB70BD00000A000020707C000806
:100AF000B7000020587E000870B5002422E00025D1
:100B00001CE013480078401E00EB4001C1EB801050
:100B1000104901EBC000C4F1030101EB4102C2EB3B
:100B2000811105EB4101405C04EB4401C1EB8411F0
:100B300005EB4101084A5054681CC5B27A2DE0DB30
:100B4000601CC4B2042CDADB00F028FE70BD00008B
:100B50000A00002028820008B700002010B54FF4DA
:100B6000005000F011F830B14FF4005000F006F8DA
:100B700001200149087010BD0800002001490860EB
:100B80007047000014040140014600200022074B7A
:100B90001B6803EA0102054B14331B680B4202D0A9
:100BA0000AB1012000E0002070470000000401406D
:100BB000002123498279002A3AD00A461268036844
:100BC0009A430B461A600A1D126803689A430B1D6C
:100BD0001A60027911440A6803681A430A60184AC5
:100BE0000832126803689A43154B08331A601A1DBD
:100BF000126803689A43124B0C331A604279102A28
:100C00000ED11A1F126803681A430D4B08331A607D
:100C10001A1D126803681A43094B0C331A600DE061
:100C20000749427911440A6803681A430A6005E0DB
:100C3000027911440A6803689A430A607047000009
:100C40000004014030B500228B071C0F0F2303FA6C
:100C500004F20B4B8C1053F824309343084C8D1046
:100C600044F8253023468C1053F824308C07240F89
:100C700000FA04F42343024C8D1044F8253030BDB3
:100C8000080001402DE9F041024600250026002021
:100C900000230024002791F803C00CF00F0591F801
:100CA00003C01CF0100F03D091F802C04CEA0505F8
:100CB00091F800C0BCF1000F31D0146800202BE087
:100CC0004FF0010C0CFA00F3B1F800C00CEA030677
:100CD0009E4220D183004FF00F0C0CFA03F7BC4367
:100CE00005FA03FC4CEA040491F803C0BCF1280F98
:100CF00006D14FF0010C0CFA00FCC2F814C00AE057
:100D000091F803C0BCF1480F05D14FF0010C0CFA6B
:100D100000FCC2F810C0401C0828D1D31460B1F800
:100D200000C0BCF1FF0F34DD546800202EE000F15C
:100D3000080C4FF0010808FA0CF3B1F800C00CEAF7
:100D400003069E4221D183004FF00F0C0CFA03F7EB
:100D5000BC4305FA03FC4CEA040491F803C0BCF15F
:100D6000280F05D100F1080C08FA0CF8C2F814801D
:100D700091F803C0BCF1480F07D100F1080C4FF007
:100D8000010808FA0CF8C2F81080401C0828CED3DD
:100D90005460BDE8F0810146886880B27047024621
:100DA000002093680B4201D0012000E00020704732
:100DB0000146C86880B27047416170470161704761
:100DC000C160704700BFFEE770B54FF480611B48FB
:100DD000FFF7F2FF052006F017F84FF400611748FF
:100DE000FFF7ECFF052006F00FF84FF48061134881
:100DF000FFF7E4FF052006F007F8002404E00520D3
:100E000006F002F8601CC4B24FF400610B48FFF713
:100E1000C6FF012801D1642CF1DB4FF400610748C3
:100E2000FFF7BDFF05464FF480610448FFF7C4FF9C
:100E3000052005F0E9FF284670BD0000000C0140C8
:100E400070B540211848FFF7B7FF052005F0DCFF1B
:100E500080211548FFF7B2FF052005F0D5FF40219E
:100E60001148FFF7ABFF052005F0CEFF002404E09A
:100E70000A2005F0C9FF601CC4B280210A48FFF7B0
:100E80008EFF012801D1642CF2DB80210648FFF798
:100E900086FF054640210448FFF78EFF052005F038
:100EA000B3FF284670BD0000000C014070B54FF440
:100EB00080611E48FFF780FF052005F0A5FF4FF475
:100EC00000611A48FFF77AFF052005F09DFF002515
:100ED0001FE04FF480611548FFF76EFF052005F015
:100EE00093FF4FF480611148FFF768FF052005F07C
:100EF0008BFF6006040E4FF400610C48FFF74FFFB4
:100F0000012802D144F0010401E024F00104681C2E
:100F1000C5B2082DDDDB4FF480610448FFF74CFFBC
:100F2000052005F071FF204670BD0000000C014057
:100F300070B540211B48FFF73FFF052005F064FF17
:100F400080211848FFF73AFF052005F05DFF0025D6
:100F50001CE040211348FFF72FFF0A2005F054FF43
:100F600040211048FFF72AFF0A2005F04DFF6006D8
:100F7000040E80210B48FFF712FF012802D144F034
:100F8000010401E024F00104681CC5B2082DE0DB77
:100F900040210448FFF710FF052005F035FF2046EB
:100FA00070BD0000000C014070B504464FF4806134
:100FB0001748FFF701FF052005F026FF002524E074
:100FC00004F08000802804D101011148FFF7F6FEEB
:100FD00004E04FF400610E48FFF7EEFE6006040ED9
:100FE000052005F011FF4FF480610948FFF7E6FE88
:100FF000052005F009FF4FF480610548FFF7DCFE8E
:10100000052005F001FF681CC5B2082DD8DB70BDB6
:10101000000C014070B5044640211648FFF7CCFE95
:10102000052005F0F1FE00251EE004F08000802878
:1010300004D180210F48FFF7C1FE03E080210D4855
:10104000FFF7BAFE0A2005F0DFFE40210948FFF74E
:10105000B5FE0A2005F0D8FE40210648FFF7ACFE99
:101060006006040E681CC5B2082DDEDB052005F005
:10107000CBFE70BD000C014010B54FF400610B4871
:10108000FFF79CFE052005F0BFFE4FF48061074886
:10109000FFF794FE052005F0B7FE4FF4006103480A
:1010A000FFF78AFE052005F0AFFE10BD000C0140E1
:1010B00010B540210A48FFF781FE052005F0A4FE87
:1010C00080210748FFF77AFE052005F09DFE80216C
:1010D0000348FFF771FE052005F096FE10BD0000E5
:1010E000000C014010B54FF400610B48FFF764FE9F
:1010F000052005F089FE4FF480610748FFF75EFE8A
:10110000052005F081FE4FF400610348FFF756FE0D
:10111000052005F079FE10BD000C014010B58021BE
:101120000A48FFF749FE052005F06EFE40210748FA
:10113000FFF744FE052005F067FE80210348FFF716
:101140003DFE052005F060FE10BD0000000C0140D2
:1011500010B5FFF7E3FA012005F072FE4FF480515D
:101160000648FFF72BFE4FF480610448FFF726FE88
:101170004FF400610148FFF721FE10BD000C014053
:1011800010B5FFF7EFFA012005F05AFE10BD000080
:1011900010B5FFF7FDFA012005F052FE4FF4806113
:1011A0000448FFF709FE4FF400710248FFF704FE00
:1011B00010BD00000010014010B5FFF7FFFA01203C
:1011C00005F03EFE10210448FFF7F8FD20210248FB
:1011D000FFF7F4FD10BD00000008014010B5FFF757
:1011E0000FFB012005F02CFE10BD000010B54FF4E0
:1011F00080711748FFF7E0FD4FF480511548FFF765
:10120000DDFD4FF480711448FFF7D8FD4FF40071F5
:101210001148FFF7D1FD012005F012FEE22000F099
:101220005DFBE22000F0BAFBA92000F057FBA920EB
:1012300000F0B4FBC02000F051FBC02000F0AEFB7A
:10124000A42000F04BFBA42000F0A8FB10BD000080
:101250000010014000080140000C014010B5FFF7EC
:10126000E5FA012005F0ECFD01210848FFF7A6FD95
:1012700002210648FFF7A2FD04210448FFF79EFD66
:1012800008210248FFF79AFD10BD00000008014048
:1012900010B5FFF7E1FA012005F0D2FD01220F2180
:1012A000002002F059FE82220E21002002F054FE9E
:1012B00000221146104602F04FFE112201210020AB
:1012C00002F04AFE10BD10B5FFF722FB012005F029
:1012D000B7FD10BD10B50020FE4908700022114670
:1012E000012002F011FEFC480078FC490870084615
:1012F0000078012805D008460078022801D0022095
:10130000087000221D21012002F0FEFDF248007845
:1013100040B2F3490870084690F900003C2804DC0C
:10132000084690F90000002802DA0320EC49087012
:1013300000221E21012002F0E7FDE748007840B2BC
:10134000E849087000221F21012002F0DDFDE2487B
:101350000078E549087008460078022801DD02207F
:101360000870E148007820B1012810D002282AD165
:101370001BE0DC4890F900003B2804DCD94890F9D8
:101380000000002802DA0320D64908701CE0D54886
:1013900090F90000172804DCD24890F900000128D9
:1013A00002DA0120CF4908700EE0CE4890F9000023
:1013B000632804DCCB4890F90000012802DA012000
:1013C000C849087000BF00BF00BF002220210120D3
:1013D00002F09AFDC0480078C449087008460078B9
:1013E000012803DB08460078022802DD0120BF49FE
:1013F00008700120BE490870BE490870FFF7EAFA7C
:10140000022005F02AFDFFF777FB022005F025FDFD
:101410000022F621012002F077FDAF480078B6499E
:1014200008700846007801283FD00020B3490870B2
:1014300011E0B24800788000401CC1B20022104682
:1014400002F062FD642005F0FBFCAC480078401C13
:1014500040B2AA490870A94890F900000728E8DBC3
:101460000120A749088013E0A5480078401E00EB42
:1014700040002230C1B20022104602F045FD642037
:1014800005F0DEFC9E480088401C00B29C490880A4
:101490009B48B0F900001D28E6DD0122F62100205E
:1014A00002F032FD642005F0CBFC00209349087067
:1014B00050E0924800788000401CC1B20022012018
:1014C00002F022FD8448007841B28E488B4A92F99E
:1014D000002000F82210894800788000801CC1B2EA
:1014E0000022012002F010FD7B48007841B28548BF
:1014F000824A92F9002000EB820041707F48007818
:101500008000C01CC1B20022012002F0FDFC724824
:10151000007840B27B49794A92F9002001EB8201C0
:101520008870764800788000001DC1B2002201203A
:1015300002F0EAFC6848007841B272486F4A92F9BA
:10154000002000EB8200C1706C480078401C40B263
:101550006A490870694890F900000728A9DB012052
:101560006749088049E066480078401E00EB40006B
:101570002130C1B20022012002F0C6FC564800789A
:1015800041B25F48B0F90000401E00EB40005E4AE7
:1015900011545B480078401E00EB40002230C1B27D
:1015A0000022012002F0B0FC4B48007841B25448C0
:1015B000B0F90000401E00EB4000534A1044417057
:1015C0004F480078401E00EB40002330C1B200229B
:1015D000012002F099FC4048007841B24848B0F937
:1015E0000000401E00EB4000474A10448170444810
:1015F0000088401C00B2424908804148B0F9000010
:101600001D28B0DD00220421012002F0A5FC3F4886
:10161000007800F00F003D490978C1F3011101EB9A
:10162000810100EB41003A490870002203210120AA
:1016300002F092FC3548007800F00F003349097839
:10164000C1F3021101EB810100EB410040B23149CD
:10165000087000220221012002F07EFC2B48007855
:1016600000F00F0029490978C1F3021101EB810153
:1016700000EB410040B228490870002208210120F7
:1016800002F06AFC2148007800F00F001F49097839
:10169000C1F3021101EB810100EB410040B21F498F
:1016A000087000220721012002F056FC174800783C
:1016B00000F00F0015490978C1F3001101EB810119
:1016C00000EB41001649087000220521012002F0BC
:1016D00043FC27E0240000203F0000200A000020F7
:1016E000190000201A0000201B0000201C00002010
:1016F0000600002007000020000000201400002049
:101700001600002044000020600000203E00002061
:101710000D0000200E0000200F000020100000200F
:10172000110000201148007800F00F000F490978DF
:10173000C1F3011101EB810100EB41000C4908707C
:1017400000220621012002F007FC0848007800F082
:1017500007000849087000F041FA012006490870A6
:101760001E20064908700649087010BD3E00002082
:10177000120000201300002001000020260000209D
:1017800027000020002003E00021034A1154401CE0
:10179000B0F5F47FF8D37047B700002070B5184E4D
:1017A000002423E044F0B80000F098F8002000F096
:1017B00095F8002505E016F8010B00F04FF9681CBC
:1017C000C5B23D2DF7DB44F0B80000F0E7F800208B
:1017D00000F0E4F83D2505E016F8010B00F09EF955
:1017E000681CC5B27A2DF7DB601CC4B2042CD9DBAF
:1017F000AF2000F073F8AF2000F0D0F870BD00000B
:10180000B7000020F0B504460B4614B1012C5CD1A2
:101810002DE0002028E0002123E0551E0126C6EB24
:101820004306761E064406EB4607C7EB861605EB15
:1018300046050D44264E755D00EB4106254FBE5D05
:101840003543561E0127C7EB43077F1E074407EBAE
:10185000470CCCEB871706EB47060E441C4FBD55D3
:10186000491C0629D9D3401C0228D4D32EE00020DD
:1018700028E0002123E0551E0126C6EB4306761E14
:10188000064406EB4607C7EB861605EB46050D44F6
:101890000F4E755D00EB41060F4FBE5D3543561E82
:1018A0000127C7EB43077F1E074407EB470CCCEB30
:1018B000871706EB47060E44054FBD55491C0B29FB
:1018C000D9D3401C0228D4D300E000BF00BFF0BD34
:1018D000B70000209F020020AB02002070B5044634
:1018E00020212C48FFF768FA04212A48FFF766FAFE
:1018F0002948FFF75DFA00F47F4040F0FF063146CB
:101900002548FFF75DFA012005F07EFA00BF0221AD
:101910002048FFF753FA2048FFF73DFA00F0800512
:1019200002211C48FFF748FA802DF0D04FF4807157
:101930001948FFF743FA20211648FFF73DFA042122
:101940001448FFF739FA01211248FFF737FA124815
:10195000FFF72EFA00F47F4040EA040631460E48B5
:10196000FFF72EFA012005F04FFA01210948FFF791
:1019700023FA4FF480710848FFF71EFA0648FFF774
:1019800017FA00F47F4040F0FF0631460248FFF7A7
:1019900017FA70BD000C01400010014070B50446FC
:1019A00020212C48FFF708FA04212A48FFF706FAFD
:1019B0002948FFF7FDF900F47F4040F0FF0631466B
:1019C0002548FFF7FDF9012005F01EFA00BF0121AF
:1019D0002048FFF7F3F92048FFF7DDF900F0800514
:1019E00001211C48FFF7E8F9802DF0D04FF48071F9
:1019F0001948FFF7E3F920211648FFF7DDF9042124
:101A00001448FFF7D9F902211248FFF7D7F9124815
:101A1000FFF7CEF900F47F4040EA040631460E4855
:101A2000FFF7CEF9012005F0EFF902210948FFF791
:101A3000C3F94FF480710848FFF7BEF90648FFF775
:101A4000B7F900F47F4040F0FF0631460248FFF747
:101A5000B7F970BD000C01400010014070B504469C
:101A600020212C48FFF7A8F904212A48FFF7A6F9FE
:101A70002948FFF79DF900F47F4040F0FF0631460A
:101A80002548FFF79DF9012005F0BEF900BF0221AE
:101A90002048FFF793F92048FFF77DF900F0800513
:101AA00002211C48FFF788F9802DF0D04FF4807197
:101AB0001948FFF783F920211648FFF77FF9042121
:101AC0001448FFF779F901211248FFF777F9124816
:101AD000FFF76EF900F47F4040EA040631460E48F5
:101AE000FFF76EF9012005F08FF901210948FFF792
:101AF00063F94FF480710848FFF75EF90648FFF775
:101B000057F900F47F4040F0FF0631460248FFF7E6
:101B100057F970BD000C01400010014070B504463B
:101B200020212C48FFF748F904212A48FFF746F9FD
:101B30002948FFF73DF900F47F4040F0FF063146A9
:101B40002548FFF73DF9012005F05EF900BF0121AE
:101B50002048FFF733F92048FFF71DF900F0800512
:101B600001211C48FFF728F9802DF0D04FF4807137
:101B70001948FFF723F920211648FFF71FF9042120
:101B80001448FFF719F902211248FFF717F9124814
:101B9000FFF70EF900F47F4040EA040631460E4894
:101BA000FFF70EF9012005F02FF902210948FFF790
:101BB00003F94FF480710848FFF7FEF80648FFF775
:101BC000F7F800F47F4040F0FF0631460248FFF787
:101BD000F7F870BD000C01400010014070B5FFF730
:101BE000D1FD002432E000252CE0FE480078401EA4
:101BF00000EB4001C1EB8010FB4901EBC000FB4949
:101C0000097801EB4102C2EB811100EB8100C4F1C4
:101C1000010101EB4102C2EB811105EB4101405C86
:101C200004EB4401C1EB841105EB4101F04A515C26
:101C3000084304EB4401C1EB841105EB410150540E
:101C4000681CC5B27A2DD0DB601CC4B2022CCADB82
:101C500002242BE0002525E0E2480078401E40F2F7
:101C6000AB114843E34901EB8001E34890F90000E0
:101C700000EB4002C2EB801001EB8001A01EC0F11E
:101C8000010000EB4002C2EB801005EB4000085C55
:101C900004EB4401C1EB841105EB4101D44A5054DB
:101CA000681CC5B27A2DD7DB601CC4B2042CD1DB12
:101CB000CC480078401E02D001287DD1EDE03220D2
:101CC00004F0C2FA042201210020FFF79BFD30201E
:101CD00004F0BAFA0B2201210020FFF793FDC74858
:101CE00090F90000642190FBF1F201FB12000A213F
:101CF00090FBF1F000F13006304604F0A5FA122214
:101D000001210020FFF77EFDBC4890F900000A2168
:101D100090FBF1F201FB120000F13006304604F0B6
:101D200093FA192201210020FFF76CFD2D2004F009
:101D30008BFA1F2201210020FFF764FDB04890F9C3
:101D40000000642190FBF1F201FB12000A2190FBDC
:101D5000F1F000F13006304604F076FA2722012136
:101D60000020FFF74FFDA64890F900000A2190FBE4
:101D7000F1F201FB120000F13006304604F064FA83
:101D80002E2201210020FFF73DFD2D2004F05CFAFA
:101D9000342201210020FFF735FD9A4890F9000018
:101DA000642190FBF1F201FB12000A2190FBF1F09B
:101DB00000F13006304600E082E104F045FA3C22B2
:101DC00001210020FFF71EFD8E4890F900000A2136
:101DD00090FBF1F201FB120000F13006304604F0F6
:101DE00033FA432201210020FFF70CFD864890F9C9
:101DF0000000642190FBF1F201FB12000A2190FB2C
:101E0000F1F000F13006304604F01EFA04220221FF
:101E10000020FFF7F7FC7C4890F900000A2190FBB6
:101E2000F1F201FB120000F13006304604F00CFA2A
:101E30000B2202210020FFF7E5FC3A2004F004FA0F
:101E4000112202210020FFF7DDFC704890F900000C
:101E5000642190FBF1F201FB12000A2190FBF1F0EA
:101E600000F13006304604F0EFF91822022100207C
:101E7000FFF7C8FC654890F900000A2190FBF1F2D9
:101E800001FB120000F13006304604F0DDF91F229C
:101E900002210020FFF7B6FC12E14AF2B23004F052
:101EA0000BF9022201210846FFF7ACFC4AF2B030E0
:101EB00004F002F90B2201210846FFF7A3FC4F486A
:101EC00090F90000642190FBF1F201FB12000A215D
:101ED00090FBF1F04AF2B0314618304604F0ECF8CD
:101EE000142201210846FFF78DFC444890F90000B8
:101EF0000A2190FBF1F201FB12004AF2B0314618C0
:101F0000304604F0D9F81D2201210846FFF77AFC7B
:101F10004AF2AD3004F0D0F8262201210846FFF73E
:101F200071FC374890F90000642190FBF1F201FB4D
:101F300012000A2190FBF1F04AF2B0314618304607
:101F400004F0BAF82F2201210846FFF75BFC2C4869
:101F500090F900000A2190FBF1F201FB12004AF215
:101F6000B0314618304604F0A7F83822012108465F
:101F7000FFF748FC4AF2AD3004F09EF841220121FF
:101F80000846FFF73FFC1F4890F90000642190FBD2
:101F9000F1F201FB12000A2190FBF1F04AF2B0319C
:101FA0004618304604F088F84A2201210846FFF717
:101FB00029FC144890F900000A2190FBF1F201FB82
:101FC00012004AF2B0314618304604F075F8532238
:101FD00001210846FFF716FC0B4890F90000642128
:101FE00016E000000A000020E0870008240000201E
:101FF000B7000020B08B0008130000201000002064
:1020000011000020120000200D0000200E00002012
:1020100090FBF1F201FB12000A2190FBF1F04AF271
:10202000B0314618304604F047F80222114601202C
:10203000FFF7E8FB244890F900000A2190FBF1F239
:1020400001FB12004AF2B0314618304604F034F871
:102050000B2202210120FFF7D5FB4AF2C31004F046
:102060002BF8142202210120FFF7CCFB174890F92E
:102070000000642190FBF1F201FB12000A2190FBA9
:10208000F1F04AF2B0314618304604F015F81A2241
:1020900002210120FFF7B6FB0C4890F900000A214D
:1020A00090FBF1F201FB12004AF2B03146183046C3
:1020B00004F002F8232202210120FFF7A3FB00BF56
:1020C00000BFFFF76BFB70BD0D0000200E0000206D
:1020D00070B5002419E0002513E0C4F1030000EB03
:1020E0004001C1EB801005EB40003E49085C04EB69
:1020F0004401C1EB841105EB41013B4A5054681C7B
:10210000C5B27A2DE9DB601CC4B2042CE3DB0024E9
:102110002AE0002524E035480078401E00EB40010D
:10212000C1EB8010324901EB8000C4F1010101EBE9
:102130004102C2EB811105EB4101405C04EB44011B
:10214000C1EB841105EB4101274A515C084304EBC4
:102150004401C1EB841105EB41015054681CC5B228
:102160007A2DD8DB601CC4B2022CD2DB022433E00F
:1021700000252DE01D480078401E40F2AB11484379
:102180001C4901EB80011C480078401E00EB400216
:10219000C2EB801001EB8001A01EC0F1010000EB3A
:1021A0004002C2EB801005EB4000085C04EB4401E8
:1021B000C1EB841105EB41010B4A515C084304EB70
:1021C0004401C1EB841105EB41015054681CC5B2B8
:1021D0007A2DCFDB601CC4B2042CC9DBFFF7DEFA1A
:1021E00070BD0000887A0008B70000200A000020B7
:1021F00008990008F09A00080700002070B5002434
:1022000019E0002513E0C4F1030000EB4001C1EB2D
:10221000801005EB40003A49085C04EB4401C1EB37
:10222000841105EB4101374A5054681CC5B27A2D20
:10223000E9DB601CC4B2042CE3DB00242AE00025A7
:1022400024E031480078401E00EB4001C1EB8010D3
:102250002E4901EB8000C4F1010101EB4102C2EB08
:10226000811105EB4101405C04EB4401C1EB841199
:1022700005EB4101234A515C084304EB4401C1EBE7
:10228000841105EB41015054681CC5B27A2DD8DB8E
:10229000601CC4B2022CD2DB02242BE0002525E016
:1022A00019480078401E00EB4001C1EB801018492E
:1022B00001EB8001A01EC0F1010000EB4002C2EB67
:1022C000801005EB4000085C04EB4401C1EB841175
:1022D00005EB41010B4A515C084304EB4401C1EB9F
:1022E000841105EB41015054681CC5B27A2DD7DB2F
:1022F000601CC4B2042CD1DBFFF750FA70BD0000A3
:10230000887A0008B70000200A00002048A80008CA
:1023100030AA000870B5FE480078401E02D001289F
:102320007DD153E1322003F08FFF042201210020F0
:10233000FFF768FA302003F087FF0B22012100200D
:10234000FFF760FAF34890F90000642190FBF1F286
:1023500001FB12000A2190FBF1F000F1300630463B
:1023600003F072FF122201210020FFF74BFAE94827
:1023700090F900000A2190FBF1F201FB120000F13C
:102380003006304603F060FF192201210020FFF7DC
:1023900039FA2D2003F058FF1F2201210020FFF7FA
:1023A00031FADD4890F90000642190FBF1F201FB65
:1023B00012000A2190FBF1F000F13006304603F0E4
:1023C00043FF272201210020FFF71CFAD24890F991
:1023D00000000A2190FBF1F201FB120000F130062F
:1023E000304603F031FF2E2201210020FFF70AFAC8
:1023F0002D2003F029FF342201210020FFF702FAEB
:10240000C64890F90000642190FBF1F201FB120034
:102410000A2190FBF1F000F13006304600E047E27F
:1024200003F012FF3C2201210020FFF7EBF9BB482B
:1024300090F900000A2190FBF1F201FB120000F17B
:102440003006304603F000FF432201210020FFF751
:10245000D9F9B34890F90000642190FBF1F201FB37
:1024600012000A2190FBF1F000F13006304603F033
:10247000EBFE042202210020FFF7C4F9A84890F9DE
:1024800000000A2190FBF1F201FB120000F130067E
:10249000304603F0D9FE0B2202210020FFF7B2F9EB
:1024A0003A2003F0D1FE112202210020FFF7AAF901
:1024B0009C4890F90000642190FBF1F201FB1200AE
:1024C0000A2190FBF1F000F13006304603F0BCFE2B
:1024D000182202210020FFF795F9924890F9000098
:1024E0000A2190FBF1F201FB120000F130063046A8
:1024F00003F0AAFE1F2202210020FFF783F95F20CC
:1025000003F0A2FE88480078012803D086480078AE
:1025100002280BD184480078401EC0EBC000113067
:10252000C2B201210020FFF76DF94EE07E4800782D
:10253000032803D07C48007804280BD17A4800781F
:10254000401EC0EBC0001830C2B201210020FFF7CE
:1025500059F93AE074480078052803D072480078A9
:1025600006280BD170480078401EC0EBC0001F3019
:10257000C2B201210020FFF745F926E06A48007841
:10258000072803D06848007808280BD166480078EF
:10259000C01FC0EBC000C01CC2B202210020FFF768
:1025A00031F912E060480078092803D05E480078CD
:1025B0000A280AD15C480078C01FC0EBC00009306F
:1025C000C2B202210020FFF71DF971E14AF2B230D8
:1025D00003F072FD022201210846FFF713F94AF2C7
:1025E000B03003F069FD0B2201210846FFF70AF91C
:1025F000484890F90000642190FBF1F201FB1200C1
:102600000A2190FBF1F04AF2B0314618304603F04F
:1026100053FD142201210846FFF7F4F83D4890F9D4
:1026200000000A2190FBF1F201FB12004AF2B031E6
:102630004618304603F040FD1D2201210846FFF7F1
:10264000E1F84AF2AD3003F037FD262201210846B9
:10265000FFF7D8F8304890F90000642190FBF1F2C0
:1026600001FB12000A2190FBF1F04AF2B03146184A
:10267000304603F021FD2F2201210846FFF7C2F862
:10268000254890F900000A2190FBF1F201FB1200AD
:102690004AF2B0314618304603F00EFD38220121CF
:1026A0000846FFF7AFF84AF2AD3003F005FD4122CE
:1026B00001210846FFF7A6F8184890F900006421A8
:1026C00090FBF1F201FB12000A2190FBF1F04AF2BB
:1026D000B0314618304603F0EFFC4A22012108468B
:1026E000FFF790F80D4890F900000A2190FBF1F2F5
:1026F00001FB12004AF2B0314618304603F0DCFC10
:10270000532201210846FFF77DF805480EE000003E
:102710000A000020100000201100002012000020FC
:102720000D0000200E0000200B00002090F900009A
:10273000642190FBF1F201FB12000A2190FBF1F001
:102740004AF2B0314618304603F0B6FC0222114678
:102750000120FFF757F8934890F900000A2190FBF9
:10276000F1F201FB12004AF2B0314618304603F094
:10277000A3FC0B2202210120FFF744F84AF2C31008
:1027800003F09AFC142202210120FFF73BF886484F
:1027900090F90000642190FBF1F201FB12000A2184
:1027A00090FBF1F04AF2B0314618304603F084FC59
:1027B0001A2202210120FFF725F87B4890F900003A
:1027C0000A2190FBF1F201FB12004AF2B0314618E7
:1027D000304603F071FC232202210120FFF712F89A
:1027E0004AF2DF3003F068FC70480078012803D01B
:1027F0006E48007802280BD16C480078401E00EB30
:10280000C0001430C2B201210846FEF7FBFF4EE0C3
:1028100066480078032803D06448007804280BD168
:1028200062480078401E00EBC0001D30C2B201219A
:102830000846FEF7E7FF3AE05C480078052803D039
:102840005A48007806280BD158480078401E00EB03
:10285000C0002630C2B201210846FEF7D3FF26E0B1
:1028600052480078072803D05048007808280BD138
:102870004E480078C01F00EBC000801CC2B202218D
:102880000120FEF7BFFF12E048480078092803D076
:10289000464800780A280AD144480078C01F00EB57
:1028A000C0000830C2B202210120FEF7ABFF00BF1A
:1028B00000BF3E4800780B2838D1022433E00025C1
:1028C0002DE03B480078401E40F2AB1148433949A7
:1028D00001EB8001384890F9000000EB4002C2EBA8
:1028E000801001EB8001A01EC0F1010000EB40024E
:1028F000C2EB801005EB4000085C04EB4401C1EB27
:10290000841105EB41012D4A515C084304EB44015D
:10291000C1EB841105EB41015054681CC5B27A2DFE
:10292000CFDB601CC4B2042CC9DB37E0022433E0E7
:1029300000252DE01E480078401E40F2AB114843B0
:102940001F4901EB80001C4991F9001001EB410285
:10295000C2EB811100EB8101A01EC0F1010000EB70
:102960004002C2EB801005EB4000085C04EB440120
:10297000C1EB841105EB4101104A515C084304EBA3
:102980004401C1EB841105EB41015054681CC5B2F0
:102990007A2DCFDB601CC4B2042CC9DBFEF7FEFE2F
:1029A00070BD00000D0000200E0000200B00002074
:1029B0000A00002018AC000813000020B700002017
:1029C000B08B000870B5FE480078012837D100248C
:1029D00032E000252CE0FB480078401E40F2AB11AD
:1029E0004843F94901EB8001F84890F9000000EBF9
:1029F0004002C2EB801001EB8000C4F1010101EB49
:102A00004102C2EB811105EB4101405C04EB440142
:102A1000C1EB841105EB4101ED4A515C084304EB25
:102A20004401C1EB841105EB41015054681CC5B24F
:102A30007A2DD0DB601CC4B2022CCADB3BE0E0483C
:102A40000078022837D1002433E000252DE0DD484E
:102A50000078401E00EB4001C1EB8010DD4901EB26
:102A6000C000DD4991F9001001EB4102C2EB811178
:102A700000EB8100C4F1010101EB4102C2EB8111C5
:102A800005EB4101405C04EB4401C1EB841105EB13
:102A90004101CF4A515C084304EB4401C1EB84116E
:102AA00005EB41015054681CC5B27A2DCFDB601C88
:102AB000C4B2022CC9DB002432E000252CE0C1485E
:102AC0000078401E40F2AB114843C44901EB80003E
:102AD000BE4991F9001001EB4102C2EB811100EBFC
:102AE0008100C4F1010101EB4102C2EB811105EB50
:102AF0004101405C04EB4401C1EB841105EB410151
:102B0000B34A515C084304EB4401C1EB841105EB6B
:102B100041015054681CC5B27A2DD0DB601CC4B290
:102B2000022CCADB002433E000252DE0A548007804
:102B3000401E00EB4001C1EB8010A94901EBC00031
:102B4000A54991F9001001EB4102C2EB811100EBA4
:102B50008100C4F1010101EB4102C2EB811105EBDF
:102B60004101405C04EB4401C1EB841105EB4101E0
:102B7000974A515C084304EB4401C1EB841105EB17
:102B800041015054681CC5B27A2DCFDB601CC4B221
:102B9000022CC9DB9048007801287DD18948007853
:102BA000401E02D0012878D146E18E48874991F92C
:102BB000001010F8210000F07F00642190FBF1F27A
:102BC00001FB12000A2190FBF1F000F130063046C3
:102BD00003F03AFB042202210020FEF713FE814895
:102BE0007A4991F9001010F8210000F07F000A21C5
:102BF00090FBF1F201FB120000F13006304603F0C9
:102C000023FB0B2202210020FEF7FCFD3A2003F0FB
:102C10001BFB112202210020FEF7F4FD71486B49D5
:102C200091F9001000EB810090F90100642190FB04
:102C3000F1F201FB12000A2190FBF1F000F13006E5
:102C4000304603F001FB182202210020FEF7DAFDD6
:102C500064485E4991F9001000EB810090F9010091
:102C60000A2190FBF1F201FB120000F13006304620
:102C700003F0EAFA1F2202210020FEF7C3FD2D20F7
:102C800003F0E2FA252202210020FEF7BBFD5548A1
:102C90004E4991F9001001E00AE208E200EB8100E0
:102CA00090F90200642190FBF1F201FB12000A216D
:102CB00090FBF1F000F13006304603F0C5FA2D220A
:102CC00002210020FEF79EFD4648404991F9001080
:102CD00000EB810090F902000A2190FBF1F201FB68
:102CE000120000F13006304603F0AEFA3422022121
:102CF0000020FEF787FD3A2003F0A6FA3A220221CF
:102D00000020FEF77FFD3748304991F9001000EBB5
:102D1000810090F90300642190FBF1F201FB1200A5
:102D20000A2190FBF1F000F13006304603F08CFAF6
:102D3000412202210020FEF765FD2A48234991F92E
:102D4000001000EB810090F903000A2190FBF1F2E2
:102D500001FB120000F13006304603F075FA4822FC
:102D600002210020FEF74EFD5F2003F06DFA1448AB
:102D70000078032803D01248007804280BD11048AB
:102D80000078C01EC0EBC000C01CC2B202210020EF
:102D9000FEF738FD4FE00A480078052803D00848C0
:102DA0000078062820D106480078C01EC0EBC0007D
:102DB0000930C2B202210020FEF724FD3BE00000F2
:102DC0000B0000200A00002098CA00081400002010
:102DD000B7000020F0D700081500002070B90008E7
:102DE000C8C6000844000020D0480078072803D057
:102DF000CE48007808280BD1CC480078C01EC0EB24
:102E0000C0001030C2B202210020FEF7FBFC12E02D
:102E1000C6480078092803D0C44800780A280AD197
:102E2000C2480078C01EC0EBC0001630C2B20221FA
:102E30000020FEF7E7FC3AE1BD48BE4991F90010D9
:102E400010F8210000F07F00642190FBF1F201FBFB
:102E500012000A2190FBF1F04AF2B03146183046D8
:102E600003F02AF9022211460120FEF7CBFCB048FC
:102E7000B04991F9001010F8210000F07F000A21FC
:102E800090FBF1F201FB12004AF2B03146183046D5
:102E900003F012F90B2202210120FEF7B3FC4AF2E3
:102EA000C31003F009F9142202210120FEF7AAFC45
:102EB0009F48A04991F9001000EB810090F90100B2
:102EC000642190FBF1F201FB12000A2190FBF1F06A
:102ED0004AF2B0314618304603F0EEF81A220221C9
:102EE0000120FEF78FFC9248924991F9001000EB07
:102EF000810090F901000A2190FBF1F201FB120020
:102F00004AF2B0314618304603F0D6F823220221A7
:102F10000120FEF777FC4AF2AD3003F0CDF82C2209
:102F200002210120FEF76EFC8148824991F90010D0
:102F300000EB810090F90200642190FBF1F201FBAB
:102F400012000A2190FBF1F04AF2B03146183046E7
:102F500003F0B2F8342202210120FEF753FC74483A
:102F6000744991F9001000EB810090F902000A21E8
:102F700090FBF1F201FB12004AF2B03146183046E4
:102F800003F09AF83D2202210120FEF73BFC4AF2B1
:102F9000C31003F091F8462202210120FEF732FC13
:102FA0006348644991F9001000EB810090F9030037
:102FB000642190FBF1F201FB12000A2190FBF1F079
:102FC0004AF2B0314618304603F076F84C2202211E
:102FD0000120FEF717FC5648564991F9001000EB06
:102FE000810090F903000A2190FBF1F201FB12002D
:102FF0004AF2B0314618304603F05EF855220221FD
:103000000120FEF7FFFB4AF2DF3003F055F8474896
:103010000078032803D04548007804280BD14348A2
:103020000078C01E00EBC000801CC2B2022101204B
:10303000FEF7E8FB3AE03D480078052803D03B481E
:10304000007806280BD139480078C01E00EBC0007C
:103050000830C2B202210120FEF7D4FB26E033483B
:103060000078072803D03148007808280BD12F4872
:103070000078C01E00EBC0001030C2B20221012057
:10308000FEF7C0FB12E029480078092803D0274842
:1030900000780A280AD125480078C01E00EBC0003D
:1030A0001630C2B202210120FEF7ACFB00BF00BF08
:1030B0001E4800780B2836D1022432E000252CE08F
:1030C0001D480078401EB72148431C4901EB800091
:1030D0001B4991F9001001EB4102C2EB811100EB99
:1030E0008101A01EC0F1010000EB4002C2EB801084
:1030F00005EB4000085C04EB4401C1EB841105EBD7
:103100004101104A515C084304EB4401C1EB8411B6
:1031100005EB41015054681CC5B27A2DD0DB601C10
:10312000C4B2042CCADBFEF739FB70BD0B000020D3
:1031300044000020140000200A000020C0DB00082A
:103140000C000020B700002070B5002422E000250C
:103150001CE0FE480078401E00EB4001C1EB8010EF
:10316000FB4901EB8000C4F1010101EB4102C2EB1C
:10317000811105EB4101405C04EB4401C1EB84117A
:1031800005EB4101F34A5054681CC5B27A2DE0DBCF
:10319000601CC4B2022CDADBEC480078401E02D07E
:1031A00001287FD13DE0EC48B0F90000642190FB9C
:1031B000F1F201FB12000A2190FBF1F000F1300660
:1031C000304603F041F82E2201210020FEF71AFBC1
:1031D000E148B0F900000A2190FBF1F201FB120076
:1031E00000F13006304603F02FF83522012100208F
:1031F000FEF708FB5F2003F027F8D8480078012885
:1032000003D0D648007802280AD1D4480078401E5E
:10321000C0EBC0002D30C2B201210020FEF7F2FA4F
:1032200040E0CD48B0F90000642190FBF1F201FBD1
:1032300012000A2190FBF1F04AF2B03146183046F4
:1032400002F03AFF282201210846FEF7DBFAC248C5
:10325000B0F900000A2190FBF1F201FB12004AF2E2
:10326000B0314618304602F027FF312201210846CE
:10327000FEF7C8FA4AF2DF3002F01EFFB7480078C6
:10328000012803D0B548007802280AD1B348007855
:10329000401E00EBC0002830C2B201210846FEF7F4
:1032A000B1FA00BF00BFAD480078032838D1002430
:1032B00033E000252DE0A5480078401E00EB4001DA
:1032C000C1EB8010A64901EBC000A64991F900109E
:1032D00001EB4102C2EB811100EB8100C4F101015D
:1032E00001EB4102C2EB811105EB4101405C04EBB3
:1032F0004401C1EB841105EB4101964A515C08433E
:1033000004EB4401C1EB841105EB41015054681CEE
:10331000C5B27A2DCFDB601CC4B2022CC9DB37E00A
:10332000002433E000252DE088480078401E00EBA3
:103330004001C1EB80108C4901EBC000894991F933
:10334000001001EB4102C2EB811100EB8100C4F1DE
:10335000010101EB4102C2EB811105EB4101405C2F
:1033600004EB4401C1EB841105EB4101794A515C46
:10337000084304EB4401C1EB841105EB41015054B7
:10338000681CC5B27A2DCFDB601CC4B2022CC9DB2D
:103390007448007801287DD16C480078401E02D026
:1033A000012878D111E1322002F04EFF04220221DF
:1033B0000020FEF727FA302002F046FF0B22022100
:1033C0000020FEF71FFA6448B0F90000401E00EB31
:1033D000400066490856642190FBF1F201FB12009F
:1033E0000A2190FBF1F000F13006304602F02CFF8C
:1033F000122202210020FEF705FA5748B0F900001A
:10340000401E00EB4000594908560A2190FBF1F29A
:1034100001FB120000F13006304602F015FF1922C0
:1034200002210020FEF7EEF92D2002F00DFF1F22F1
:1034300002210020FEF7E6F94748B0F90000401EDF
:1034400000EB400049490844407800F00F00642137
:1034500090FBF1F201FB12000A2190FBF1F000F168
:103460003006304602F0F0FE272202210020FEF74F
:10347000C9F93948B0F90000401E00EB40003B4953
:103480000844407800F00F000A2190FBF1F201FBA4
:10349000120001E0A1E19FE100F13006304602F0A8
:1034A000D3FE2E2202210020FEF7ACF92D2002F0DF
:1034B000CBFE342202210020FEF7A4F92648B0F901
:1034C0000000401E00EB40002849084490F902002B
:1034D000642190FBF1F201FB12000A2190FBF1F054
:1034E00000F13006304602F0AFFE3C2202210020FF
:1034F000FEF788F91848B0F90000401E00EB4000C4
:103500001A49084490F902000A2190FBF1F201FBEC
:10351000120000F13006304602F096FE43220221EE
:103520000020FEF76FF95F2002F08EFE0B48007856
:10353000042803D00948007805281ED107480078E0
:10354000001FC0EBC0001130C2B211E00A00002021
:1035500078E10008B7000020160000200B000020D2
:1035600030E700081800002060E300086000002039
:1035700002210020FEF746F926E0B7480078062829
:1035800003D0B548007807280BD1B3480078001F56
:10359000C0EBC0001830C2B202210020FEF732F9A1
:1035A00012E0AD480078082803D0AB48007809281D
:1035B0000AD1A9480078001FC0EBC0001F30C2B27A
:1035C00002210020FEF71EF906E14AF2B23002F0B5
:1035D00073FD022211460120FEF714F94AF2B030C1
:1035E00002F06AFD0B2202210120FEF70BF99B4835
:1035F000B0F90000401E00EB4000994908566421D4
:1036000090FBF1F201FB12000A2190FBF1F04AF26B
:10361000B0314618304602F04FFD1422022101203D
:10362000FEF7F0F88D48B0F90000401E00EB4000B6
:103630008B4908560A2190FBF1F201FB12004AF275
:10364000B0314618304602F037FD1D22022101201C
:10365000FEF7D8F84AF2AD3002F02EFD2622022104
:103660000120FEF7CFF87D48B0F90000401E00EBC6
:1036700040007B490844407800F00F00642190FB33
:10368000F1F201FB12000A2190FBF1F04AF2B03195
:103690004618304602F010FD2F2202210120FEF7CD
:1036A000B1F86E48B0F90000401E00EB40006C49D4
:1036B0000844407800F00F000A2190FBF1F201FB72
:1036C00012004AF2B0314618304602F0F5FC3822BA
:1036D00002210120FEF796F84AF2AD3002F0ECFC30
:1036E000412202210120FEF78DF85C48B0F900006C
:1036F000401E00EB40005A49084490F90200642142
:1037000090FBF1F201FB12000A2190FBF1F04AF26A
:10371000B0314618304602F0CFFC4A220221012087
:10372000FEF770F84D48B0F90000401E00EB400075
:103730004B49084490F902000A2190FBF1F201FB89
:1037400012004AF2B0314618304602F0B5FC53225E
:1037500002210120FEF756F84AF2DF3002F0ACFCFD
:103760003D480078042803D03B48007805280BD159
:1037700039480078001F00EBC0001430C2B20221AB
:103780000120FEF73FF826E033480078062803D0F2
:103790003148007807280BD12F480078001F00EB34
:1037A000C0001D30C2B202210120FEF72BF812E04A
:1037B00029480078082803D02748007809280AD12A
:1037C00025480078001F00EBC0002630C2B202215D
:1037D0000120FEF717F800BF00BF1F4800780A2835
:1037E00036D1022432E000252CE01E480078401E2D
:1037F000B72148431C4901EB80001C4991F9001096
:1038000001EB4102C2EB811100EB8101A01EC0F16E
:10381000010000EB4002C2EB801005EB4000085CA9
:1038200004EB4401C1EB841105EB4101104A515CEA
:10383000084304EB4401C1EB841105EB41015054F2
:10384000681CC5B27A2DD0DB601CC4B2042CCADB64
:10385000FDF7A4FF70BD00000B0000201600002043
:10386000600000200A00002000EB00080C0000208F
:10387000B700002070B5002422E000251CE0C948F4
:103880000078401E00EB4001C1EB8010C64901EBFF
:103890008000C4F1010101EB4102C2EB811105EB93
:1038A0004101405C04EB4401C1EB841105EB410193
:1038B000BE4A5054681CC5B27A2DE0DB601CC4B20D
:1038C000022CDADB02242BE0002525E0B548007845
:1038D000401E00EB4001C1EB8010B54901EB8001B7
:1038E000A01EC0F1010000EB4002C2EB801005EB0E
:1038F0004000085C04EB4401C1EB841105EB41017D
:10390000AA4A515C084304EB4401C1EB841105EB66
:1039100041015054681CC5B27A2DD7DB601CC4B27B
:10392000042CD1DB9F480078401E02D001287DD1B5
:1039300099E0A048007840BB022423E000251DE068
:1039400098480078401E00EB4001C1EB80109A4976
:1039500001EBC001A01EC0F1010000EB4002C2EB70
:10396000801005EB4000085C04EB4401C1EB8411BE
:1039700005EB41018D4A5054681CC5B27A2DDFDB3E
:10398000601CC4B2042CD9DB6CE08A4800783C2867
:1039900029D1022424E000251EE082480078401E40
:1039A00000EB4001C1EB8010834901EBC000F43013
:1039B000A11EC1F1010101EB4102C2EB811105EB36
:1039C0004101405C04EB4401C1EB841105EB410172
:1039D000764A5054681CC5B27A2DDEDB601CC4B236
:1039E000042CD8DB3EE0734890F90000642190FB82
:1039F000F1F201FB12000A2190FBF1F000F1300618
:103A0000304602F021FC042202210020FDF7FAFEDC
:103A1000684890F900000A2190FBF1F201FB1200C6
:103A200000F13006304602F00FFC00E0B6E00B2259
:103A300002210020FDF7E6FE5F2002F005FC5F4852
:103A40000078012803D05D48007802280AD15B483D
:103A50000078401EC0EBC000C01CC2B20221002092
:103A6000FDF7D0FE9AE05348007840BB022423E0E3
:103A700000251DE04B480078401E00EB4001C1EBE3
:103A800080104D4901EBC001A01EC0F1010000EB08
:103A90004002C2EB801005EB4000085C04EB4401DF
:103AA000C1EB841105EB4101404A5054681CC5B27A
:103AB0007A2DDFDB601CC4B2042CD9DB6DE03D48FD
:103AC00000783C2829D1022424E000251EE0354856
:103AD0000078401E00EB4001C1EB8010364901EB3D
:103AE000C000F430A11EC1F1010101EB4102C2EBA3
:103AF000811105EB4101405C04EB4401C1EB8411F1
:103B000005EB4101294A5054681CC5B27A2DDEDB11
:103B1000601CC4B2042CD8DB3FE0264890F90000BA
:103B2000642190FBF1F201FB12000A2190FBF1F0FD
:103B30004AF2B0314618304602F0BEFA022211466F
:103B40000120FDF75FFE1B4890F900000A2190FB61
:103B5000F1F201FB12004AF2B0314618304602F091
:103B6000ABFA0B2202210120FDF74CFE4AF2DF30B6
:103B700002F0A2FA11480078012803D00F4800781B
:103B800002280AD10D480078401E00EBC000801CBE
:103B9000C2B202210120FDF735FE00BF00BFFDF7D4
:103BA000FDFD70BD0A000020B8F00008B70000203D
:103BB000A0F200081900002088F400080B00002083
:103BC00070B5002422E000251CE071480078401EFA
:103BD00000EB4001C1EB80106E4901EB8000C4F1A5
:103BE000010101EB4102C2EB811105EB4101405C97
:103BF00004EB4401C1EB841105EB4101664A5054CA
:103C0000681CC5B27A2DE0DB601CC4B2022CDADB82
:103C1000022431E000252BE05D480078401EB721EA
:103C200048435E4901EB80005D49097801EB4102A0
:103C3000C2EB811100EB8101A01EC0F1010000EB7D
:103C40004002C2EB801005EB4000085C04EB44012D
:103C5000C1EB841105EB41014F4A515C084304EB71
:103C60004401C1EB841105EB41015054681CC5B2FD
:103C70007A2DD1DB601CC4B2042CCBDB4448007825
:103C8000401E02D001287FD13DE0464890F9000057
:103C9000642190FBF1F201FB12000A2190FBF1F08C
:103CA00000F13006304602F0CFFA04220221002053
:103CB000FDF7A8FD3B4890F900000A2190FBF1F2C6
:103CC00001FB120000F13006304602F0BDFA0B2273
:103CD00002210020FDF796FD5F2002F0B5FA324880
:103CE0000078012803D03048007802280AD12E48F5
:103CF0000078401EC0EBC000C01CC2B202210020F0
:103D0000FDF780FD40E0274890F90000642190FB1A
:103D1000F1F201FB12000A2190FBF1F04AF2B031FE
:103D20004618304602F0C8F9022211460120FDF77C
:103D300069FD1C4890F900000A2190FBF1F201FB9B
:103D400012004AF2B0314618304602F0B5F90B22A3
:103D500002210120FDF756FD4AF2DF3002F0ACF9F6
:103D600011480078012803D00F48007802280AD1B2
:103D70000D480078401E00EBC000801CC2B202213A
:103D80000120FDF73FFD00BF00BFFDF707FD70BD3F
:103D90000A00002058F80008B700002040FA000888
:103DA0001B0000201A0000200B00002070B500242A
:103DB00022E000251CE02B480078401E00EB40016B
:103DC000C1EB8010284901EB8000C4F1010101EB37
:103DD0004102C2EB811105EB4101405C04EB44015F
:103DE000C1EB841105EB4101204A5054681CC5B257
:103DF0007A2DE0DB601CC4B2022CDADB02242BE05B
:103E0000002525E01A480078401E00EB4001C1EB78
:103E10008010184901EB8001A01EC0F1010000EBE9
:103E20004002C2EB801005EB4000085C04EB44014B
:103E3000C1EB841105EB41010C4A515C084304EBD2
:103E40004401C1EB841105EB41015054681CC5B21B
:103E50007A2DD7DB601CC4B2042CD1DBFDF79EFCAD
:103E600070BD00000A000020F8FF0008B700002025
:103E70001C000020E001010800BFFEE770470000C1
:103E800070B5002100230F22C4780CB3164C2468AF
:103E900004F4E064C4F5E064210AC1F10403CA40FB
:103EA000447804FA03F184781440214309010F4C4B
:103EB0000678A155047804F01F050124AC4005786C
:103EC0006D114FF0E02606EB8505C5F8004109E0CD
:103ED000047804F01F050124AC40054D06787611E6
:103EE00045F8264070BD00000CED00E000E400E065
:103EF00080E100E002490143024A1160704700007E
:103F00000000FA050CED00E070B504460D461646BB
:103F10004FF480510F48FCF74FFF052002F074FF6B
:103F200034B900243146284602F0BAFF044606E0C0
:103F3000012C04D10024284602F09AF804464FF4DC
:103F400080510448FCF73AFF052002F05DFF20464F
:103F500070BD0000000C014070B504460D461646C9
:103F600034B900243146284602F0BBFF044606E07F
:103F7000012C04D10024284602F03EFA04462046D3
:103F800070BD000010B50D480078012815D102F071
:103F90000FFA04468CB1FDF7F5FB012C0DD0082C6F
:103FA0000BD0022C09D0042C07D102200349087041
:103FB000012003490870FEF78BF810BD06000020B1
:103FC0000700002010B54F480078022817D102F0F2
:103FD000EFF90446002C12D0FDF7D4FB012C0FD1D1
:103FE00049480078012803D107204749087004E0B8
:103FF00045480078401E44490870FEF769F880E0A3
:10400000082C0FD140480078072803D101203E49F1
:10401000087004E03C480078401C3B490870FEF7FB
:1040200057F86EE0022C05D1012036490870FDF7E3
:10403000D5FD66E0042C64D13348007808285ED2B0
:10404000DFE800F05D040A132A454E57FEF7D6F864
:1040500015202C49087053E001202C490870FEF708
:1040600059F91620274908704AE0012027490870AD
:1040700027490870002027490870274891F9001047
:1040800010F82100C0F3C01024490870FEF79AFC14
:1040900017201C49087033E001201C4908700020DB
:1040A0001B49087001201E4908801E484078C0F353
:1040B00000101D4908701B48407800F00F00194996
:1040C0004870FFF741F818200E49087018E00120E9
:1040D0000E490870FFF7CEFB19200A4908700FE05F
:1040E00001200A490870FFF76BFD1A200549087086
:1040F00006E0FFF75BFE1B200249087000E000BFEE
:1041000000BF10BD06000020070000200B000020AB
:104110000C000020140000204400002015000020A6
:1041200016000020600000201800002010B525486F
:104130000078152844D102F03BF90446002C3FD00A
:10414000FDF720FB012C0FD11F480078012803D177
:1041500002201D49087004E01B480078401E1A49DF
:104160000870FEF74BF82BE0082C0FD116480078AA
:10417000022803D101201449087004E01248007895
:10418000401C11490870FEF739F819E0022C05D1DE
:1041900002200C490870FDF79BFF11E0042C0FD1A1
:1041A000FCF748FC0848027800210846FFF7ACFEFF
:1041B000642002F045FE012002490870FDF70EFD63
:1041C00010BD0000060000200A0000202DE9FC4779
:1041D000FE48007816287DD102F0EAF88246BAF14E
:1041E000000F77D0FDF7CEFABAF1010F73D1F8487E
:1041F0000078012803D0F6480078022827D1F44936
:104200000978C1F10200FCF756F802460B46CDE9E9
:1042100000010020EF4902F021FF06460F46EE485C
:1042200090F90000FCF747F8804632463B46FBF722
:104230009BFF0446FCF750F840B2E7490870084677
:1042400090F90000632801DD63200870D3E0E048A6
:104250000078032803D0DE480078042827D1DC4901
:104260000978C1F10400FCF726F8064632460B46F1
:104270000020D84902F0F2FE04460D46D74890F9D6
:104280000000FCF718F822462B46CDE90001FBF7A9
:104290006BFF8046FCF720F840B2D0490870084612
:1042A00090F900000C28D1DD0C200870A3E0C8486C
:1042B0000078052803D0C648007806282AD1C449CA
:1042C0000978C1F10600FBF7F6FF02460B46CDE97F
:1042D000000101E044E291E00020BE4902F0BEFE90
:1042E00004460D46BE4890F90000FBF7E4FF064681
:1042F00022462B46FBF738FF8046FBF7EDFF40B226
:10430000B7490870084690F900001F2873DD1F2088
:10431000087070E0AE480078072803D0AC480078F9
:10432000082827D1AA490978C1F10800FBF7C3FF83
:1043300002460B46CDE900010020A64902F08EFEA0
:1043400080468946A74890F90000FBF7B4FF06466F
:1043500042464B46FBF708FF0446FBF7BDFF40B261
:10436000A0490870084690F90000172843DD17207F
:10437000087040E096480078092803D094480078F7
:104380000A2827D192490978C1F10A00FBF793FF67
:10439000804642460B4600208E4902F05FFE0646EC
:1043A0000F46914890F90000FBF785FF32463B46E7
:1043B000CDE90001FBF7D8FE0446FBF78DFF40B2C4
:1043C00089490870084690F900003B2813DD3B201E
:1043D000087010E07E4800780B280CD183480078E4
:1043E000401C40B281490870084690F90000062838
:1043F00001DD00200870FDF78DFFEAE1BAF1080F3A
:104400007DD173480078012803D0714800780228D4
:1044100026D16F490978C1F10200FBF74CFF8046B5
:1044200042460B4600206B4902F018FECDE9000120
:10443000694890F90000FBF73EFF0646DDE90023DE
:10444000FBF733FF0446FBF747FF40B262490870B1
:10445000084690F90000002801DA00200870E5E025
:104460005B480078032803D059480078042827D1F6
:1044700057490978C1F10400FBF71DFF8046424609
:104480000B460020534902F0E9FD04460D4653480F
:1044900090F90000FBF70FFF064622462B46FBF77C
:1044A00004FFCDE90001FBF717FF40B24B4908704C
:1044B000084690F900000128D1DA01200870B5E023
:1044C00043480078052803D041480078062829D1C0
:1044D0003F490978C1F10600FBF7EDFE064632467A
:1044E0000B4600203B4902F0B9FD804689463C4816
:1044F00090F90000FBF7DFFE42464B4600E098E0F3
:10450000CDE90001FBF7D1FE0446FBF7E5FE40B222
:1045100033490870084690F90000012801DA0120AB
:10452000087083E02A480078072803D028480078DC
:10453000082827D126490978C1F10800FBF7BBFEFE
:10454000064632460B460020224902F087FD04460B
:104550000D46244890F90000FBF7ADFE22462B469D
:10456000CDE90001FBF7A1FE8046FBF7B5FE40B2A6
:104570001C490870084690F90000002856DA00200F
:10458000087053E012480078092803D010480078DA
:104590000A283AD10E490978C1F10A00FBF78BFECF
:1045A000804642460B4600200A4902F057FD044669
:1045B0000D460D4890F90000FBF77DFE06462246A9
:1045C0002B46FBF772FECDE9000111E0060000204A
:1045D0000B000020000024401000002011000020EB
:1045E000120000200D0000200E000020130000200B
:1045F000FBF772FE40B278490870084690F9000057
:10460000002813DA0020087010E0744800780B28A6
:104610000CD173480078401E40B2714908700846BA
:1046200090F90000002801DA06200870FDF772FEFC
:10463000CFE0BAF1020F11D168480078012805D106
:10464000022068490870FDF743FDC2E06348007826
:10465000401E62490870FDF75DFEBAE0BAF1040F32
:104660007ED15E4800780B287BD1FCF7E3F95E48E9
:1046700090F900000A2190FBF1F201FB12005A4967
:1046800091F900100A2291FBF2F140EA0110C4B244
:10469000224604210020FFF75FFC642002F0D0FBDB
:1046A0004D4890F900000A2190FBF1F201FB120045
:1046B000494991F900100A2291FBF2F140EA0110F8
:1046C000C4B2224603210020FFF746FC642002F01A
:1046D000B7FB002045490870084690F900000A2100
:1046E00090FBF1F201FB1200404991F900100A22FF
:1046F00091FBF2F140EA0110C4B2224602210020EF
:10470000FFF72AFC642002F09BFB394890F9000077
:104710000A2190FBF1F201FB1200354991F90010DA
:104720000A2291FBF2F140EA0110C4B222460821AC
:104730000020FFF711FC642002F082FB2D4890F965
:1047400000000A2190FBF1F201FB1200294991F9C6
:1047500000100A2291FBF2F140EA0110C4B201E01C
:1047600037E02FE0224607210020FFF7F5FB642009
:1047700002F066FB204890F900000A2190FBF1F25C
:1047800001FB12001C4991F900100A2291FBF2F181
:1047900040EA0110C4B2224605210020FFF7DCFBED
:1047A000642002F04DFB0E48027806210020FFF73E
:1047B000D3FB642002F044FB01200A490870FDF796
:1047C0000DFA06E005480078401C04490870FDF722
:1047D000A1FDBDE8FC8700000E0000200B000020BA
:1047E00013000020060000200D0000200F00002014
:1047F0001000002011000020120000202DE9FC5FB5
:10480000FD48007817287DD101F0D2FD8146B9F12D
:10481000000F77D0FCF7B6FFB9F1010F73D1F7485D
:104820000078012829D1F64890F90010F548F64A99
:1048300092F9002010F8220061F3DF1040B2F14934
:10484000F14A92F9002001F82200EF480078401C5C
:1048500040B2ED490870084690F90000062801DDD5
:1048600000200870E748E84991F9001010F821008D
:10487000C0F3C010E249087037E1E0480078022830
:104880000DD1DF480078401C40B2DD490870084671
:1048900090F900000128EFDD0020087025E1D748DD
:1048A0000078032803D0D548007804283DD1D349A7
:1048B0000978C1F10400FBF7FEFC824652460B4624
:1048C0000020D24902F0CAFB07468846CD49CE4AAD
:1048D00092F9002011F8221001F07F00FBF7EBFCA9
:1048E00005463A464346FBF73FFCCDE90001FBF79E
:1048F000F3FC40B2C349C44A92F9002001F82200F7
:10490000084601E06CE2F3E0BF4991F9001000EBCA
:10491000810090F900001728AEDD1720B949BA4A86
:1049200092F9002001F82200DFE0B4480078052861
:1049300003D0B248007806283CD1B0490978C1F1CB
:104940000600FBF7B8FC02460B46CDE9000100204B
:10495000AE4902F083FB05460E46AA49AA4A92F9DF
:10496000002001EB820191F90100FBF7A4FC8246D3
:104970002A463346FBF7F8FB0746FBF7ADFC40B28F
:10498000A049A14A92F9002001EB820148709D489C
:104990009D4991F9001000EB810090F901003B283E
:1049A000C2DD3B209749984A92F9002001EB820131
:1049B00048709AE091480078072803D08F48007823
:1049C00008283CD18D490978C1F10800FBF773FC38
:1049D00002460B46CDE9000100208C4902F03EFB67
:1049E00005460E468749884A92F9002001EB82016C
:1049F00091F90200FBF75FFC07462A463346FBF7B6
:104A0000B3FB8246FBF768FC41B27E487E4A92F9CE
:104A1000002000EB820081707A487B4991F90010F8
:104A200000EB810090F9020017285EDD1720754920
:104A3000754A92F9002001EB8201887055E06F48B9
:104A40000078092803D06D4800780A283CD16B49CA
:104A50000978C1F10A00FBF72EFC824652460B464C
:104A600000206A4902F0FAFA05460E466549664A90
:104A700092F9002001EB820191F90300FBF71BFC86
:104A800007462A463346FBF76FFBCDE90001FBF7EB
:104A900023FC40B25B495C4A92F9002001EB8201A1
:104AA000C8705848584991F9001000EB810090F9FE
:104AB00003003B2819DD3B205249534A92F900205C
:104AC00001EB8201C87010E04C4800780B280CD133
:104AD0004F480078401C40B24D490870084690F994
:104AE0000000022801DD00200870FDF76BFF48E29E
:104AF000B9F1080F7ED141480078012829D14048FA
:104B000090F900103F48404A92F9002010F8220026
:104B100061F3DF1040B23B493B4A92F9002001F8B3
:104B2000220039480078401E40B2374908700846D4
:104B300090F90000002801DA062008703148324957
:104B400091F9001010F82100C0F3C0102C49087032
:104B500044E12A48007802280DD129480078401EF7
:104B600040B227490870084690F900000028EFDAA3
:104B70000120087032E121480078032803D01F4843
:104B8000007804284BD11D490978C1F10400FBF7D6
:104B900092FB824652460B4600201C4902F05EFA08
:104BA00005460E461749184A92F9002011F82210BE
:104BB00001F07F00FBF77FFB07462A463346FBF7F1
:104BC00074FBCDE90001FBF787FB40B20D490E4AAB
:104BD00092F9002001F8220008460B4991F90010D3
:104BE00000EB810090F900000028B1DA00210548AF
:104BF000054A0FE0F5E00000060000200B00002051
:104C00001500002044000020140000200000244073
:104C10000C00002092F9002000F82210DEE0DA48B3
:104C20000078052803D0D848007806283CD1D6491A
:104C30000978C1F10600FBF73EFB05462A460B4604
:104C40000020D24902F00AFA07468846D049D14AE4
:104C500092F9002001EB820191F90100FBF72BFB97
:104C600082463A464346FBF720FBCDE90001FBF7BD
:104C700033FB40B2C649C74A92F9002001EB8201DA
:104C80004870C348C34991F9001000EB810090F9C6
:104C90000100002807DA0020BD49BE4A92F9002031
:104CA00001EB8201487099E0B7480078072803D0EB
:104CB000B548007808283CD1B3490978C1F108000B
:104CC000FBF7F9FA824652460B460020AF4902F044
:104CD000C5F905460E46AE49AE4A92F9002001EBF1
:104CE000820191F90200FBF7E6FA07462A463346AD
:104CF000FBF7DBFACDE90001FBF7EEFA40B2A4497D
:104D0000A44A92F9002001EB82018870A048A149D1
:104D100091F9001000EB810090F9020000285DDAA3
:104D200000209B499B4A92F9002001EB8201887088
:104D300054E095480078092803D0934800780A2861
:104D40003BD191490978C1F10A00FBF7B4FA074653
:104D50003A460B4600208D4902F080F9CDE900016A
:104D60008B498C4A92F9002001EB820191F90300F2
:104D7000FBF7A1FA0546DDE90023FBF796FA824628
:104D8000FBF7AAFA40B28249824A92F9002001EB6D
:104D90008201C8707E487F4991F9001000EB8100C4
:104DA00090F90300002819DA00207949794A92F92C
:104DB000002001EB8201C87010E0734800780B28D6
:104DC0000CD175480078401E40B2734908700846FF
:104DD00090F90000002801DA02200870FDF7F2FDCA
:104DE000CFE0B9F1020F1ED167480078012805D144
:104DF00002206A490870FDF76BF9C2E0624800784A
:104E00000B2808D16648007828B902205E4908704E
:104E1000FDF7D8FDB5E05C480078401E5A4908709F
:104E2000FDF7D0FDADE0B9F1040FD9D156480078B7
:104E30000B287DD1584890F9000020B1012855D0A9
:104E4000022876D181E0FBF7F5FD554890F9001076
:104E50004F48504A92F9002010F8220061F3DF1009
:104E600040B24B494B4A92F9002001F8220000243D
:104E700034E0474810F82420A000401CC1B20020B4
:104E8000FFF742F8642001F0DBFF414800EB8400AB
:104E90004278A000801CC1B20020FFF735F86420E2
:104EA00001F0CEFF3A4800EB84008278A000C01CDD
:104EB000C1B20020FFF728F8642001F0C1FF344898
:104EC00000EB8400C278A000001DC1B20020FFF7F3
:104ED0001BF8642001F0B4FF601CC4B2072CC8DBCF
:104EE00001202E490870FCF779FE35E02C4890F936
:104EF00000102748274A92F9002010F8220061F399
:104F0000DF1040B22249234A92F9002001F8220022
:104F100020480078401C40B21E490870084690F9AD
:104F20000000062801DD002008701948194901E039
:104F300013E010E091F9001010F82100C0F3C01048
:104F400017490870FDF73EFD06E00220134908707E
:104F5000FDF7BEF800E000BF13E00B480078022820
:104F600008D10F48007828B90B2007490870FDF7D1
:104F700029FD06E004480078401C03490870FDF74D
:104F800021FDBDE8FC9F00000B0000200000244034
:104F900044000020140000200C0000200600002027
:104FA000150000202DE9F04786B0F6480078182853
:104FB00073D101F0FDF98246BAF1000F6DD0FCF714
:104FC000E1FBBAF1010F69D1EF480078012803D065
:104FD000ED480078022862D1EC4890F90010EC48C6
:104FE000B0F90000401E00EB4000EA4A104440784F
:104FF00061F31F1041B2E648B0F90000401E00EB1B
:10500000400010444170E0490978C1F10200FBF70B
:1050100052F902460B46CDE900010020DE4902F0BC
:105020001DF807468846DA48B0F90000FBF743F957
:105030003A464346CDE90201FBF796F80546FBF7F1
:105040004BF900B2D24908800846B0F900001D288B
:1050500001DD01200880CE48B0F90000401E00EBC1
:105060004000CC4908444078C0F30010C74908709C
:10507000C748B0F90000401E00EB4000C549084495
:10508000407800F00F01C248B0F90000401E00EB6C
:105090004000C04A1044417005E187E206E1BA4889
:1050A000007803280DD1B9480078401C40B2B749B8
:1050B0000870084690F900000128EDDD0020087016
:1050C000F1E0B1480078042803D0AF480078052803
:1050D0003ED1AD490978C1F10500FBF7ECF8024675
:1050E0000B46CDE900010020AB4901F0B7FF0546B2
:1050F0000E46A749B1F90010491E01EB4101A54A2E
:105100005056FBF7D8F807462A463346FBF72CF8EB
:10511000CDE90201FBF7E0F841B29D48B0F900008B
:10512000401E00EB40009B4A11549948B0F9000022
:10513000401E00EB4000114608566328ACDD632199
:105140009348B0F90000401E00EB40001154AAE063
:105150008D480078062803D08B480078072844D172
:1051600089490978C1F10700FBF7A5F802460B460B
:10517000CDE900010020884901F070FF05460E4688
:105180008349B1F90010491E01EB4101814A1144E4
:1051900091F90100FBF78FF82A463346CDE9020169
:1051A000FAF7E2FF0746FBF797F841B27848B0F903
:1051B0000000401E00EB4000764A104441707448E5
:1051C000B0F90000401E00EB40001146084490F981
:1051D00001000C2867DD0C216D48B0F90000401E6D
:1051E00000EB4000104441705DE0674800780828FB
:1051F00003D065480078092844D163490978C1F192
:105200000900FBF758F807463A460B46002062496A
:1052100001F024FF05460E465D49B1F90010491E14
:1052200001EB41015B4A114491F90200FBF743F89D
:105230002A463346CDE90001FAF796FFCDE902018F
:10524000FBF74AF841B25248B0F90000401E00EBAB
:105250004000504A104481704D48B0F90000401E93
:1052600000EB40001146084490F902001F281ADDA7
:105270001F214748B0F90000401E00EB40001044D9
:10528000817010E0404800780A280CD1434800782B
:10529000401C40B241490870084690F900000128BE
:1052A00001DD00200870FDF74FFFB7E3BAF1080FEA
:1052B00067D135480078012803D0334800780228A8
:1052C0006FD1324890F900103148B0F90000401E0B
:1052D00000EB40002F4A1044407861F31F1041B2A8
:1052E0002B48B0F90000401E00EB40001044417014
:1052F00025490978C1F10200FAF7DDFF07463A4671
:105300000B460020244901F0A9FECDE90001204808
:10531000B0F90000FAF7CFFF0546DDE90023FAF700
:10532000C4FFCDE90201FAF7D7FF00B2184908809F
:105330000846B0F90000012801DA1D200880144851
:10534000B0F90000401E00EB4000124908444078CC
:10535000C0F300100D4908700D48B0F90000401E60
:1053600000EB40000B490844407800F07F010848FA
:10537000B0F90000401E00EB4000064A10444170A6
:1053800012E114E1060000200B00002018000020AC
:105390001600002060000020000024400C000020C7
:1053A000FFE7FA48007803280DD1F9480078401E3D
:1053B00040B2F7490870084690F900000028DFDA8B
:1053C00001200870F0E0F1480078042803D0EF488D
:1053D000007805283ED1ED490978C1F10500FAF7BA
:1053E0006AFF02460B46CDE900010020E94901F0C1
:1053F00035FE05460E46E849B1F90010491E01EB9D
:105400004101E64A5056FAF756FF2A463346CDE99F
:105410000201FAF74AFF0746FAF75EFF41B2DE489B
:10542000B0F90000401E00EB4000DC4A1154DA489D
:10543000B0F90000401E00EB40001146085600285D
:105440009EDA0021D448B0F90000401E00EB400075
:105450001154A9E0CD480078062803D0CB48007845
:10546000072844D1C9490978C1F10700FAF723FF99
:1054700002460B46CDE900010020C64901F0EEFDD1
:1054800005460E46C449B1F90010491E01EB410121
:10549000C24A114491F90100FAF70DFF07462A4666
:1054A0003346FAF702FFCDE90201FAF715FF41B2E0
:1054B000B948B0F90000401E00EB4000B74A104464
:1054C0004170B548B0F90000401E00EB40001146A5
:1054D000084490F90100012866DA0121AE48B0F9CC
:1054E0000000401E00EB4000104441705CE0A74803
:1054F0000078082803D0A5480078092843D1A3499B
:105500000978C1F10900FAF7D6FE05462A460B468E
:105510000020A04901F0A2FDCDE900019E49B1F9AA
:105520000010491E01EB41019C4A114491F902000F
:10553000FAF7C1FE0746DDE90023FAF7B6FECDE92A
:105540000201FAF7C9FE41B29348B0F90000401ECB
:1055500000EB4000914A104481708F48B0F9000080
:10556000401E00EB40001146084490F9020001285B
:105570001ADA01218848B0F90000401E00EB400013
:105580001044817010E0814800780A280CD18448CA
:105590000078401E40B282490870084690F9000029
:1055A000002801DA01200870FDF7CEFD36E2BAF1DD
:1055B000020F49D17548007801281CD17648B0F90E
:1055C0000000401E00EB40007449084440787049D8
:1055D000097840EA011041B26F48B0F90000401E5E
:1055E00000EB40006D4A1044417002206D49087084
:1055F000FCF76EFD12E2654800780A2808D164487D
:10560000007828B9032061490870FDF79DFD05E287
:105610005E480078401E5D4908705F48B0F90000A0
:10562000401E00EB40005D490844407800F00F0147
:105630005948B0F90000401E00EB4000574A1044A2
:105640004170FDF781FDE9E1BAF1040FAED14F4899
:1056500000780A287DD1524890F9000010B1012845
:1056600078D1ABE1FBF7E6F9494890F900104A48D8
:10567000B0F90000401E00EB4000484A104440785A
:1056800061F31F1041B24448B0F90000401E00EB26
:1056900040001044417001203F49088032E13E48FB
:1056A00090F8009000BF09EB49003C49084440785D
:1056B000C0F30011A9F1010000EB4000374A10448B
:1056C0004078C0F3001081422FDD002408E009EB90
:1056D000490032490844005D04A90855601CC4B261
:1056E000032CF4DB00240DE0A9F1010000EB4000E5
:1056F0002A490844005D09EB4901284A114408552C
:10570000601CC4B2032CEFDB00240BE004A8005D96
:1057100041B2A9F1010000EB4000204A10440155BC
:10572000601CC4B2032CF1DBDEE009EB49001B492D
:1057300008444078C0F300100028F5D0A9F101001A
:1057400000EB400008444078C0F300100028EBD084
:1057500001E03BE138E109EB49000956A9F10100FC
:1057600000EB40000D4A105681423EDA002408E06A
:1057700009EB490009490844005D04A90855601C6B
:10578000C4B2032CF4DB00241CE000000B0000205A
:1057900018000020000024401600002060000020B7
:1057A0000C00002006000020A9F1010000EB4000E1
:1057B0009C490844005D09EB49019A4A1144085587
:1057C000601CC4B2032CEFDB00240BE004A8005DD6
:1057D00041B2A9F1010000EB4000924A104401558A
:1057E000601CC4B2032CF1DB7EE009EB49008D495B
:1057F000084490F90110A9F1010000EB4000894A2A
:10580000104490F9010081422FDA002408E009EBEE
:10581000490084490844005D04A90855601CC4B2CD
:10582000032CF4DB00240DE0A9F1010000EB4000A3
:105830007C490844005D09EB49017A4A1144085546
:10584000601CC4B2032CEFDB00240BE004A8005D55
:1058500041B2A9F1010000EB4000724A1044015529
:10586000601CC4B2032CF1DB3EE009EB49006D493A
:10587000084490F90210A9F1010000EB4000694AC8
:10588000104490F9020081422EDA002408E009EB6E
:10589000490064490844005D04A90855601CC4B26D
:1058A000032CF4DB00240DE0A9F1010000EB400023
:1058B0005C490844005D09EB49015A4A1144085506
:1058C000601CC4B2032CEFDB00240BE004A8005DD5
:1058D00041B2A9F1010000EB4000524A10440155C9
:1058E000601CC4B2032CF1DBA9F1010000F0FF0938
:1058F000B9F1000F7FF4D7AE4B480088401C00B2CE
:10590000494908804848B0F900001D28FFF6C7AE95
:1059100001204549088046E04348B0F90000401E98
:1059200000EB40003F4B1A5C3F480078401E00EB04
:1059300040002130C1B20020FEF7E6FA642001F0F9
:105940007FFA3948B0F90000401E00EB4000354BAB
:105950001844427834480078401E00EB4000223062
:10596000C1B20020FEF7D0FA642001F069FA2E4897
:10597000B0F90000401E00EB40002A4B184482782A
:1059800029480078401E00EB40002330C1B20020BF
:10599000FEF7BAFA642001F053FA23480088401C4D
:1059A00000B2214908802048B0F900001D28B3DD6D
:1059B00001201E490870FCF711F906E002201B497E
:1059C0000870FCF785FB00E000BF27E0184800786E
:1059D000032808D11748007828B90A20144908700C
:1059E000FDF7B2FB1AE012480078401C104908701D
:1059F0000D48B0F90000401E00EB40000949084482
:105A0000407800F00F010848B0F90000401E00EB9C
:105A10004000044A10444170FDF796FB06B0BDE813
:105A2000F087000060000020160000200600002023
:105A30000B000020180000202DE9FC478848007862
:105A400019286AD100F0B4FC8246BAF1000F64D084
:105A5000FBF798FEBAF1010F60D1824890F900007F
:105A6000002829DC0220804908700978C1F1020071
:105A7000FAF721FC02460B46CDE9000100207B49E4
:105A800001F0ECFA80468946764890F90000FAF772
:105A900012FC064642464B46FAF766FB0446FAF706
:105AA0001BFC40B26F490870084690F900003C2882
:105AB00031DD3C2008702EE06B480078012803D0CF
:105AC00069480078022826D167490978C1F10200A7
:105AD000FAF7F1FB064632460B460020634901F017
