:020000040800F2
:100000004806002045010008C52C000875100008AE
:10001000C12C000817070008394300080000000041
:10002000000000000000000000000000B5400008D3
:10003000D109000800000000213900082942000809
:100040005F0100085F0100085F0100085F01000810
:100050005F0100085F0100085F0100085F01000800
:100060005F0100085F0100085F0100085F010008F0
:100070005F0100085F0100085F0100085F010008E0
:100080005F0100085F0100085F0100085F010008D0
:100090005F0100085F0100085F0100085F010008C0
:1000A0005F0100085F0100085F0100085F010008B0
:1000B0005F0100085F0100085F0100085F010008A0
:1000C0005F0100085F0100085F0100085F01000890
:1000D0005F0100085F0100085F0100085F01000880
:1000E000890C00085F0100085F0100085F0100083B
:1000F0005F0100085F0100085F0100085F01000860
:100100005F0100085F0100085F0100085F0100084F
:100110005F0100085F0100085F0100085F0100083F
:100120005F0100085F0100085F0100085F0100082F
:10013000DFF80CD000F08CFA00480047C5440008F6
:10014000480600200648804706480047FEE7FEE7CD
:10015000FEE7FEE7FEE7FEE7FEE7FEE7FEE7FEE777
:1001600035420008310100082DE9FE4F804681EA42
:100170000300C00F0C46009021F0004123F0004521
:10018000B8EB0200A94105D24046214690461C46E4
:100190000B46024623F00040104304D1404621465E
:1001A00003B0BDE8F08F270DC7F30A00C3F30A516F
:1001B0000290401A0190402866DAC3F3130040F41D
:1001C000801B0098924620B10023D2EB030A63EB18
:1001D0000B0B01985946C0F14002504600F09BF8C5
:1001E00006460D4650465946019A00F0B3F810EB0A
:1001F00008006141002487EA115284EAE7731A4338
:100200003BD0009A3AB3019A012A4FEA075210DC18
:10021000001B61EB02014FF0004202EA0752CDE9F8
:100220000042001C41F5801132462B4600F0B1F827
:10023000B6E7001B61EB0201001C41F580130018BA
:100240005B412018A2F5001747EB030140EAD57087
:10025000B6196D4111E06D084FEA360645EAC075E2
:100260004FEA0752001B61EB0201001C41F58011AF
:1002700049084FEA30000019514132462B4603B07D
:10028000BDE8F04F00F078B800980122400000234C
:10029000D0EB020263EBE073009821464FEAE07472
:1002A000B8EB000061EB0401E9E783F000435BE792
:1002B00081F0004158E70EB5C10F80EAE0700844B4
:1002C000CA07002140F233438DE80E000A460B4670
:1002D00000F05FF803B000BD70B5C1F30A5201F041
:1002E00000450024C1F3130140F2FF3341F48011B3
:1002F0009A4201DA002070BD40F233439A42A2F2E2
:10030000334203DC524200F015F800E090402C43E9
:10031000F1D0404270BD202A04DB203A00FA02F1FD
:10032000002070479140C2F1200320FA03F31943E3
:1003300090407047202A04DB203A21FA02F0002185
:10034000704721FA02F3D040C2F1200291400843E5
:1003500019467047202A06DBCB17203A41FA02F0F3
:1003600043EAE07306E041FA02F3D040C2F1200212
:10037000914008431946704710B5002B08DA401C1D
:1003800041F1000192185B411A4301D120F00100B4
:1003900010BD2DE9F04D92469B4611B1B1FA81F2A4
:1003A00002E0B0FA80F220329046FFF7B4FF044634
:1003B0000F4640EA0A0041EA0B0153465A460843F9
:1003C00003D120463946BDE8F08D114653EA0100BD
:1003D00015D0C8F140025046FFF7ACFF05460E4667
:1003E000504659464246FFF796FF084301D0012088
:1003F00000E00020054346EAE0762C4337430A98A4
:100400004FEA4453A0EB08004FEAD4240A304FF0DF
:10041000000244EA47544FEAD72502D5002001469E
:10042000D1E7010510196941DDE908450019694165
:10043000BDE8F04DA0E72DE9FE4F81EA030404F08A
:10044000004421F0004100944FF0000B23F00043E2
:1004500050EA010402D052EA030404D1002001460C
:1004600003B0BDE8F08FC3F30A54C1F30A552C441E
:10047000A4F2F3340194A0FB0254C1F3130141F43C
:100480008011C3F3130343F4801301FB024400FB08
:10049000034E840A970A44EA815447EA8357A4FB2F
:1004A000076802958D0A05FB07854FEA932C04FB2C
:1004B0000C542705029D4FEA065847EA1637B5EB5C
:1004C00008056EEB070C870E920E47EA811742EA89
:1004D0008312A7FB0201B6EB0B0164EB00042B0DAA
:1004E00043EA0C335E1844EB1C50DA465146E7FBF6
:1004F0000201C5F313044FEA0B3343EA14534FEAE6
:100500000432019C43EA0603A4F10C040294009C0B
:10051000CDE900B4FFF73DFFA2E72DE9F04D81EAF8
:10052000030404F0004B21F0004514464FF0000A8C
:1005300023F0004150EA050220D054EA01021DD008
:10054000C5F30A570246C5F31303C1F31300C1F301
:100550000A5640F4801543F48013A7EB0608101BDD
:10056000D64608F2FD3873EB050002D308F1010806
:1005700001E092185B41B8F1000F03DA0020014658
:10058000BDE8F08D00204FF48011064684460EE051
:10059000171B73EB050705D3121B63EB050306431B
:1005A0004CEA010C49084FEA300092185B4150EACE
:1005B0000107EDD152EA030012D082EA040083EA77
:1005C0000501084303D100224FF0004308E0101B4F
:1005D000AB4102D20122002302E06FF0010253106E
:1005E0001AEB06004CEB085110EB0A0041EB0B0133
:1005F000BDE8F04DFFF7C0BE70B521F000430343E6
:100600000CD0C1F30A550024D5EB040564EB0403B8
:10061000D617AD1AB34102DB0020014670BD201889
:1006200041EB025170BD000030B5002904DB4FF0F2
:100630000044404264EB0101002B04DB4FF0004416
:10064000524264EB0303994208BF904230BD000060
:10065000064C074D06E0E06840F0010394E807000F
:1006600098471034AC42F6D3FFF766FD608100086E
:10067000808100082DE9F04D00231A461B1A8A419B
:1006800003DB00200146BDE8F08DC1F30A52C1F33F
:10069000130141F480154FF0000BD10702D100186F
:1006A0006D41521E0027044640F2FF11384601EB0F
:1006B000620A3E468046024600204FF48011FFF752
:1006C00039FEC2197141BB1846EB0100B4EB030CB3
:1006D00075EB000C04D3E41A65EB000517460E46D3
:1006E000241908F101006D4180463428E3DDF91931
:1006F00046EB0600091BA84103D24FF0FF32134618
:1007000001E0002213461BEB070046EB0A51BDE84F
:10071000F04DFFF731BE00BFFEE7000008B5012134
:10072000082003F0FFF84FF4E050ADF8000002207D
:100730008DF8020014208DF803006946084800F087
:10074000F9FB4FF4E050ADF8000003208DF80200F3
:1007500048208DF803006946014800F0EBFB08BD16
:10076000000C014008B50121102003F0DBF84FF424
:10077000C050ADF8000048208DF8030003208DF82C
:1007800002006946014800F0D5FB08BD0010014099
:1007900008B50121102003F0C5F84FF4C060ADF892
:1007A000000010208DF8030002208DF80200694639
:1007B000014800F0BFFB08BD0010014008B5012151
:1007C000042003F0AFF8B020ADF8000010208DF841
:1007D000030002208DF802006946084800F0AAFBD9
:1007E0004020ADF8000048208DF8030003208DF86C
:1007F00002006946014800F09DFB08BD0008014069
:1008000008B50121042003F08DF84FF47060ADF8B5
:10081000000048208DF8030003208DF8020069468F
:10082000014800F087FB08BD0008014008B5012120
:10083000042003F077F80F20ADF8000010208DF8A9
:10084000030002208DF802006946024800F072FBA6
:1008500008BD0000000801401FB50121192003F068
:1008600061F8C020ADF80C0002208DF80E001420B5
:100870008DF80F0003A9244800F05CFBC020ADF800
:100880000C0003208DF80E0048208DF80F0003A9FE
:100890001D4800F04FFB4FF40050ADF80C00032052
:1008A0008DF80E0048208DF80F0003A9174800F0BE
:1008B00041FB4FF4E06002F041FA28208DF8080077
:1008C00000208DF809008DF80A0001208DF80B003A
:1008D00002A802F0F9F900208DF804000C208DF830
:1008E00005004FF40050009001208DF80600684686
:1008F00000F0B6FA0D21022000F0FCFA4FF400508F
:1009000000F094FA1FBD0000000C014000100140EF
:1009100008B501213C2003F005F84FF48050ADF8F4
:10092000000010208DF8030002208DF802006946B7
:10093000234800F0FFFA40F22730ADF80000102005
:100940008DF8030002208DF8020069461D4800F072
:10095000F1FAFF20ADF8000048208DF803000320D5
:100960008DF802006946184800F0E4FAFF20ADF85F
:10097000000014208DF8030002208DF80200694663
:10098000114800F0D7FA4FF48070ADF80000102045
:100990008DF8030002208DF8020069460A4800F035
:1009A000C9FA0420ADF8000010208DF803000220E1
:1009B0008DF802006946054800F0BCFA08BD000049
:1009C00000080140000C01400010014000140140EB
:1009D0007047000070B5002421E000251BE012489C
:1009E000007800EB4001C1EB8010104901EBC00022
:1009F000C4F1030101EB4102C2EB811105EB41019E
:100A0000405C04EB4401C1EB841105EB4101084A51
:100A10005054681CC5B27A2DE1DB601CC4B2042CB2
:100A2000DBDB00F0BDFE70BD070000202451000894
:100A30005A00002070B5002652E0002422E0002574
:100A40001CE029480078401E00EB4001C1EB8010FB
:100A5000264901EB8000C4F1010101EB4102C2EB28
:100A6000811105EB4101405C04EB4401C1EB8411B1
:100A700005EB41011E4A5054681CC5B27A2DE0DBDB
:100A8000601CC4B2022CDADB022420E000251AE04C
:100A900006EB4600C0EB8610164901EB8001A01E54
:100AA000C0F1010000EB4002C2EB801005EB4000FA
:100AB000085C04EB4401C1EB841105EB41010C4AD5
:100AC0005054681CC5B27A2DE2DB601CC4B2042C01
:100AD000DCDB00F065FE012003F00DFC701CC6B2EB
:100AE000022EAADB70BD0000080000204477000839
:100AF0005A0000202C79000870B5002422E000255F
:100B00001CE013480078401E00EB4001C1EB801050
:100B1000104901EB8000C4F1010101EB4102C2EB7D
:100B2000811105EB4101405C04EB4401C1EB8411F0
:100B300005EB4101084A5054681CC5B27A2DE0DB30
:100B4000601CC4B2022CDADB00F02AFE70BD00008B
:100B500008000020FC7C00085A00002070B500242A
:100B600022E000251CE013480078401E00EB400105
:100B7000C1EB8010104901EB8000C4F1010101EBD1
:100B80004102C2EB811105EB4101405C04EB4401E1
:100B9000C1EB841105EB4101084A5054681CC5B2F1
:100BA0007A2DE0DB601CC4B2022CDADB00F0F8FD29
:100BB00070BD000008000020E47E00085A000020FC
:100BC00070B5002422E000251CE013480078401E88
:100BD00000EB4001C1EB8010104901EB8000C4F133
:100BE000010101EB4102C2EB811105EB4101405CC7
:100BF00004EB4401C1EB841105EB4101084A505458
:100C0000681CC5B27A2DE0DB601CC4B2022CDADBB2
:100C100000F0C6FD70BD000008000020147B000835
:100C20005A00002070B5002422E000251CE0134883
:100C30000078401E00EB4001C1EB8010104901EB31
:100C4000C000C4F1030101EB4102C2EB811105EBCD
:100C50004101405C04EB4401C1EB841105EB41010F
:100C6000084A5054681CC5B27A2DE0DB601CC4B23F
:100C7000042CDADB00F094FD70BD000008000020B9
:100C80000C5300085A00002010B54FF4005000F03B
:100C9000D3F800282BD04FF4005000F0C7F8564886
:100CA00000780028F6D05548007801281FD1544814
:100CB000007840B34FF40061524800F0C8F938B1F1
:100CC00051480078032803DD0D205049087002E0E8
:100CD0000B204E4908704C4800780A2808DB002099
:100CE000474908704FF48061464800F0BDF981E043
:100CF00045480078401C444908704FF480614148E1
:100D000000F0B4F976E04FF400613E4800F09FF93E
:100D100010B33F4890F9004004EBD4704010B4EB9E
:100D2000400019D13B4890F900003B4991F900106F
:100D3000884211DD354800780D280DD037480078FD
:100D4000032805DA35480078401C3449087030E043
:100D50000D202E4908702CE04FF40061294800F066
:100D600076F988B92B4890F900002B4991F90010C9
:100D7000884209DD254800780D2805D10020274943
:100D800008702249087014E0204800780D2810D01F
:100D9000234800680C30182190FBF1F021490968C4
:100DA000884203DB0C201949087002E00120174932
:100DB0000870174991F9000000EBD0714910B0EBB1
:100DC00041010FD1134991F90010134A92F9002003
:100DD000914207DD0120144908708102094800F0A2
:100DE00045F907E00020104908704FF4806105487C
:100DF00000F03AF910BD00000000002004000020BF
:100E00000100002000100140030000200600002027
:100E10001500002014000020160000200200002011
:100E2000100000200C00002009000020014908608B
:100E30007047000014040140014600200022074BC7
:100E40001B6803EA0102054B14331B680B4202D0F6
:100E50000AB1012000E000207047000000040140BA
:100E6000002123498279002A3AD00A461268036891
:100E70009A430B461A600A1D126803689A430B1DB9
:100E80001A60027911440A6803681A430A60184A12
:100E90000832126803689A43154B08331A601A1D0A
:100EA000126803689A43124B0C331A604279102A75
:100EB0000ED11A1F126803681A430D4B08331A60CB
:100EC0001A1D126803681A43094B0C331A600DE0AF
:100ED0000749427911440A6803681A430A6005E029
:100EE000027911440A6803689A430A607047000057
:100EF0000004014030B500228B071C0F0F2303FABA
:100F000004F20B4B8C1053F824309343084C8D1093
:100F100044F8253023468C1053F824308C07240FD6
:100F200000FA04F42343024C8D1044F8253030BD00
:100F3000080001402DE9F04102460025002600206E
:100F400000230024002791F803C00CF00F0591F84E
:100F500003C01CF0100F03D091F802C04CEA050545
:100F600091F800C0BCF1000F31D0146800202BE0D4
:100F70004FF0010C0CFA00F3B1F800C00CEA0306C4
:100F80009E4220D183004FF00F0C0CFA03F7BC43B4
:100F900005FA03FC4CEA040491F803C0BCF1280FE5
:100FA00006D14FF0010C0CFA00FCC2F814C00AE0A4
:100FB00091F803C0BCF1480F05D14FF0010C0CFAB9
:100FC00000FCC2F810C0401C0828D1D31460B1F84E
:100FD00000C0BCF1FF0F34DD546800202EE000F1AA
:100FE000080C4FF0010808FA0CF3B1F800C00CEA45
:100FF00003069E4221D183004FF00F0C0CFA03F739
:10100000BC4305FA03FC4CEA040491F803C0BCF1AC
:10101000280F05D100F1080C08FA0CF8C2F814806A
:1010200091F803C0BCF1480F07D100F1080C4FF054
:10103000010808FA0CF8C2F81080401C0828CED32A
:101040005460BDE8F0810146886880B2704702466E
:10105000002093680B4201D0012000E0002070477F
:101060000146C86880B270474161704701617047AE
:10107000C160704700BFFEE770B54FF480611B4848
:10108000FFF7F2FF052003F00DF94FF40061174858
:10109000FFF7ECFF052003F005F94FF480611348DA
:1010A000FFF7E4FF052003F0FDF8002404E005202D
:1010B00003F0F8F8601CC4B24FF400610B48FFF76E
:1010C000C6FF012801D1642CF1DB4FF40061074811
:1010D000FFF7BDFF05464FF480610448FFF7C4FFEA
:1010E000052003F0DFF8284670BD0000000C014029
:1010F00070B540211848FFF7B7FF052003F0D2F87C
:1011000080211548FFF7B2FF052003F0CBF84021FE
:101110001148FFF7ABFF052003F0C4F8002404E0FA
:101120000A2003F0BFF8601CC4B280210A48FFF710
:101130008EFF012801D1642CF2DB80210648FFF7E5
:1011400086FF054640210448FFF78EFF052003F087
:10115000A9F8284670BD0000000C014070B54FF49E
:1011600080611E48FFF780FF052003F09BF84FF4D5
:1011700000611A48FFF77AFF052003F093F8002575
:101180001FE04FF480611548FFF76EFF052003F064
:1011900089F84FF480611148FFF768FF052003F0DC
:1011A00081F86006040E4FF400610C48FFF74FFF12
:1011B000012802D144F0010401E024F00104681C7C
:1011C000C5B2082DDDDB4FF480610448FFF74CFF0A
:1011D000052003F067F8204670BD0000000C0140B8
:1011E00070B540211B48FFF73FFF052003F05AF878
:1011F00080211848FFF73AFF052003F053F8002537
:101200001CE040211348FFF72FFF0A2003F04AF8A3
:1012100040211048FFF72AFF0A2003F043F8600638
:10122000040E80210B48FFF712FF012802D144F081
:10123000010401E024F00104681CC5B2082DE0DBC4
:1012400040210448FFF710FF052003F02BF820464B
:1012500070BD0000000C014070B504464FF4806181
:101260001748FFF701FF052003F01CF8002524E0D4
:1012700004F08000802804D101011148FFF7F6FE38
:1012800004E04FF400610E48FFF7EEFE6006040E26
:10129000052003F007F84FF480610948FFF7E6FEE8
:1012A000052002F0FFFF4FF480610548FFF7DCFEE8
:1012B000052002F0F7FF681CC5B2082DD8DB70BD11
:1012C000000C014070B5044640211648FFF7CCFEE3
:1012D000052002F0E7FF00251EE004F080008028D2
:1012E00004D180210F48FFF7C1FE03E080210D48A3
:1012F000FFF7BAFE0A2002F0D5FF40210948FFF7A8
:10130000B5FE0A2002F0CEFF40210648FFF7ACFEF2
:101310006006040E681CC5B2082DDEDB052002F055
:10132000C1FF70BD000C014010B54FF400610B48C7
:10133000FFF79CFE052002F0B5FF4FF480610748DF
:10134000FFF794FE052002F0ADFF4FF40061034863
:10135000FFF78AFE052002F0A5FF10BD000C01403A
:1013600010B540210A48FFF781FE052002F09AFFE0
:1013700080210748FFF77AFE052002F093FF8021C5
:101380000348FFF771FE052002F08CFF10BD00003E
:10139000000C014010B54FF400610B48FFF764FEEC
:1013A000052002F07FFF4FF480610748FFF75EFEE3
:1013B000052002F077FF4FF400610348FFF756FE67
:1013C000052002F06FFF10BD000C014010B5802118
:1013D0000A48FFF749FE052002F064FF4021074854
:1013E000FFF744FE052002F05DFF80210348FFF770
:1013F0003DFE052002F056FF10BD0000000C01402C
:1014000010B5FFF78BF9012002F068FF4FF480510F
:101410000648FFF72BFE4FF480610448FFF726FED5
:101420004FF400610148FFF721FE10BD000C0140A0
:1014300010B5FFF797F9012002F050FF10BD000032
:1014400010B5FFF7A5F9012002F048FF4FF48061C5
:101450000448FFF709FE4FF400710248FFF704FE4D
:1014600010BD00000010014010B5FFF7A7F90120E2
:1014700002F034FF10210448FFF7F8FD2021024854
:10148000FFF7F4FD10BD00000008014010B5FFF7A4
:10149000B7F9012002F022FF10BD000010B54FF493
:1014A00080711748FFF7E0FD4FF480511548FFF7B2
:1014B000DDFD4FF480711448FFF7D8FD4FF4007143
:1014C0001148FFF7D1FD012002F008FFE22000F0F3
:1014D00007FAE22000F064FAA92000F001FAA9203E
:1014E00000F05EFAC02000F0FBF9C02000F058FACE
:1014F000A42000F0F5F9A42000F052FA10BD00007D
:101500000010014000080140000C014010B5FFF739
:101510008DF9012002F0E2FE01210848FFF7A6FD47
:1015200002210648FFF7A2FD04210448FFF79EFDB3
:1015300008210248FFF79AFD10BD00000008014095
:1015400010B5FFF789F9012002F0C8FE01220F2132
:10155000002001F025FC82220E21002001F020FC59
:1015600000221146104601F01BFC1122012100202F
:1015700001F016FC10BD10B5FFF7CAF9012002F00A
:10158000ADFE10BD10B501216E48FFF76DFD0220C4
:101590006D49087000221146012001F0D9FB6B480B
:1015A00000786949087008460078012805D0084687
:1015B0000078022801D0012008700022012108468D
:1015C00001F0C6FB6148007840B261490870002212
:1015D0000221012001F0BCFB5C48007800025D495B
:1015E000086000220321012001F0B2FB5948006885
:1015F000564909780844574908600022042101200F
:1016000001F0A6FB5148007800025349086000220F
:101610000521012001F09CFB4F4800684B490978E7
:1016200008444D49086001204C4908704C49087035
:10163000FFF7D0F9012002F05EFEFFF7F3FA012078
:1016400002F059FE00220421012001F0A9FB4548C7
:10165000007800F00F0043490978C1F3011101EB54
:10166000810100EB41004049087000220321012064
:1016700001F096FB3B48007800F00F0039490978EB
:10168000C1F3021101EB810100EB410040B2374987
:10169000087000220221012001F082FB314800780D
:1016A00000F00F002F490978C1F3021101EB81010D
:1016B00000EB410040B22E490870002208210120B1
:1016C00001F06EFB2748007800F00F0025490978EB
:1016D000C1F3021101EB810100EB410040B2254949
:1016E000087000220721012001F05AFB1D480078F4
:1016F00000F00F001B490978C1F3001101EB8101D3
:1017000000EB41001C49087000220521012001F076
:1017100047FB1448007800F00F0012490978C1F324
:10172000011101EB810100EB41001449087000F048
:101730002BF800F055FA00201149087001201149DA
:10174000087010BD00080140080000203300002090
:10175000140000200C0000201000002004000020D5
:101760000500002032000020150000201600002097
:101770001700002018000020190000201A00002087
:101780000200002000000020002003E00021034AA6
:101790001154401CB0F5F47FF8D370475A00002074
:1017A00070B5184E002423E044F0B80000F098F81B
:1017B000002000F095F8002505E016F8010B00F078
:1017C0004FF9681CC5B23D2DF7DB44F0B80000F0BE
:1017D000E7F8002000F0E4F83D2505E016F8010BDD
:1017E00000F09EF9681CC5B27A2DF7DB601CC4B20C
:1017F000042CD9DBAF2000F073F8AF2000F0D0F854
:1018000070BD00005A000020F0B504460B4614B12C
:10181000012C5CD12DE0002028E0002123E0551EA2
:101820000126C6EB4306761E064406EB4607C7EBC9
:10183000861605EB46050D44264E755D00EB410608
:10184000254FBE5D3543561E0127C7EB43077F1E5C
:10185000074407EB470CCCEB871706EB47060E4413
:101860001C4FBD55491C0629D9D3401C0228D4D38E
:101870002EE0002028E0002123E0551E0126C6EBC3
:101880004306761E064406EB4607C7EB861605EBB5
:1018900046050D440F4E755D00EB41060F4FBE5DD2
:1018A0003543561E0127C7EB43077F1E074407EB4E
:1018B000470CCCEB871706EB47060E44054FBD558A
:1018C000491C0B29D9D3401C0228D4D300E000BF07
:1018D00000BFF0BD5A000020380000204400002066
:1018E00070B5044620212C48FFF7BEFB04212A488E
:1018F000FFF7BCFB2948FFF7B3FB00F47F4040F043
:10190000FF0631462548FFF7B3FB012002F0CAFC71
:1019100000BF02212048FFF7A9FB2048FFF793FBF7
:1019200000F0800502211C48FFF79EFB802DF0D0BF
:101930004FF480711948FFF799FB20211648FFF7F3
:1019400093FB04211448FFF78FFB01211248FFF796
:101950008DFB1248FFF784FB00F47F4040EA040649
:1019600031460E48FFF784FB012002F09BFC012169
:101970000948FFF779FB4FF480710848FFF774FBC3
:101980000648FFF76DFB00F47F4040F0FF0631464C
:101990000248FFF76DFB70BD000C014000100140D4
:1019A00070B5044620212C48FFF75EFB04212A482D
:1019B000FFF75CFB2948FFF753FB00F47F4040F042
:1019C000FF0631462548FFF753FB012002F06AFC71
:1019D00000BF01212048FFF749FB2048FFF733FBF8
:1019E00000F0800501211C48FFF73EFB802DF0D060
:1019F0004FF480711948FFF739FB20211648FFF793
:101A000033FB04211448FFF72FFB02211248FFF794
:101A10002DFB1248FFF724FB00F47F4040EA040648
:101A200031460E48FFF724FB012002F03BFC022167
:101A30000948FFF719FB4FF480710848FFF714FBC2
:101A40000648FFF70DFB00F47F4040F0FF063146EB
:101A50000248FFF70DFB70BD000C01400010014073
:101A600070B5044620212C48FFF7FEFA04212A48CD
:101A7000FFF7FCFA2948FFF7F3FA00F47F4040F043
:101A8000FF0631462548FFF7F3FA012002F00AFC71
:101A900000BF02212048FFF7E9FA2048FFF7D3FAF8
:101AA00000F0800502211C48FFF7DEFA802DF0D0FF
:101AB0004FF480711948FFF7D9FA20211648FFF733
:101AC000D5FA04211448FFF7CFFA01211248FFF795
:101AD000CDFA1248FFF7C4FA00F47F4040EA04064A
:101AE00031460E48FFF7C4FA012002F0DBFB01216A
:101AF0000948FFF7B9FA4FF480710848FFF7B4FAC4
:101B00000648FFF7ADFA00F47F4040F0FF0631468B
:101B10000248FFF7ADFA70BD000C01400010014013
:101B200070B5044620212C48FFF79EFA04212A486C
:101B3000FFF79CFA2948FFF793FA00F47F4040F042
:101B4000FF0631462548FFF793FA012002F0AAFB71
:101B500000BF01212048FFF789FA2048FFF773FAF8
:101B600000F0800501211C48FFF77EFA802DF0D09F
:101B70004FF480711948FFF779FA20211648FFF7D2
:101B800075FA04211448FFF76FFA02211248FFF793
:101B90006DFA1248FFF764FA00F47F4040EA040649
:101BA00031460E48FFF764FA012002F07BFB022168
:101BB0000948FFF759FA4FF480710848FFF754FAC3
:101BC0000648FFF74DFA00F47F4040F0FF0631462B
:101BD0000248FFF74DFA70BD000C014000100140B3
:101BE00070B5AC480078401E02D001287ED187E055
:101BF000A94890F90000642190FBF1F201FB12006A
:101C00000A2190FBF1F000F13006304602F010F8A6
:101C1000042201210020FFF7F7FD9F4890F9000002
:101C20000A2190FBF1F201FB120000F13006304670
:101C300001F0FEFF0B2201210020FFF7E5FD3A2015
:101C400001F0F6FF112201210020FFF7DDFD93488E
:101C500090F90000642190FBF1F201FB12000A21CF
:101C600090FBF1F000F13006304601F0E1FF182260
:101C700001210020FFF7C8FD884890F900000A21E3
:101C800090FBF1F201FB120000F13006304601F04A
:101C9000CFFF1F2201210020FFF7B6FD3A2001F0FF
:101CA000C7FF252201210020FFF7AEFD7C4890F9F7
:101CB0000000642190FBF1F201FB12000A2190FB6D
:101CC000F1F000F13006304601F0B2FF2C22012184
:101CD0000020FFF799FD724890F900000A2190FB5F
:101CE000F1F201FB120000F1300600E096E0304610
:101CF00001F09EFF332201210020FFF785FD8DE0DA
:101D0000654890F90000642190FBF1F201FB12009C
:101D10000A2190FBF1F04AF2B0314618304601F04A
:101D2000BFFE022201210846FFF76EFD5A4890F9D6
:101D300000000A2190FBF1F201FB12004AF2B031DF
:101D40004618304601F0ACFE0B2201210846FFF791
:101D50005BFD4AF2C31001F0A3FE142201210846E4
:101D6000FFF752FD4D4890F90000642190FBF1F21D
:101D700001FB12000A2190FBF1F04AF2B031461843
:101D8000304601F08DFE1A2201210846FFF73CFD86
:101D9000424890F900000A2190FBF1F201FB120089
:101DA0004AF2B0314618304601F07AFE2322012172
:101DB0000846FFF729FD4AF2C31001F071FE2C22FC
:101DC00001210846FFF720FD354890F90000642105
:101DD00090FBF1F201FB12000A2190FBF1F04AF2B4
:101DE000B0314618304601F05BFE32220121084630
:101DF000FFF70AFD2A4890F900000A2190FBF1F252
:101E000001FB12004AF2B0314618304601F048FE9C
:101E10003B2201210846FFF7F7FC00BF00BF022468
:101E200033E000252DE01B480078401E00EB400108
:101E3000C1EB80101B4901EBC0001B49097801EB85
:101E40004102C2EB811100EB8101A01EC0F1010033
:101E500000EB4002C2EB801005EB4000085C04EB95
:101E60004401C1EB841105EB4101104A515C084368
:101E700004EB4401C1EB841105EB41015054681C93
:101E8000C5B27A2DCFDB601CC4B2042CC9DBFFF7CE
:101E900087FC70BD080000201500002016000020FF
:101EA00017000020DC560008090000205A0000201E
:101EB00070B5002419E0002513E0C4F1030000EB25
:101EC0004001C1EB801005EB40003E49085C04EB8B
:101ED0004401C1EB841105EB41013B4A5054681C9D
:101EE000C5B27A2DE9DB601CC4B2042CE3DB00240C
:101EF0002AE0002524E035480078401E00EB400130
:101F0000C1EB8010324901EB8000C4F1010101EB0B
:101F10004102C2EB811105EB4101405C04EB44013D
:101F2000C1EB841105EB4101274A515C084304EBE6
:101F30004401C1EB841105EB41015054681CC5B24A
:101F40007A2DD8DB601CC4B2022CD2DB022434E030
:101F500000252EE01D480078401E00EB4001C1EB3B
:101F600080101C4901EB00111B480078401E00EB5B
:101F70004002C2EB801001EB8001A01EC0F1010005
:101F800000EB4002C2EB801005EB4000085C04EB64
:101F90004401C1EB841105EB41010B4A515C08433C
:101FA00004EB4401C1EB841105EB41015054681C62
:101FB000C5B27A2DCEDB601CC4B2042CC8DBFFF79F
:101FC000EFFB70BD3C4F00085A00002008000020C5
:101FD000AC5A0008945C00080500002070B500248D
:101FE00019E0002513E0C4F1030000EB4001C1EB50
:101FF000801005EB40003A49085C04EB4401C1EB5A
:10200000841105EB4101374A5054681CC5B27A2D42
:10201000E9DB601CC4B2042CE3DB00242AE00025C9
:1020200024E031480078401E00EB4001C1EB8010F5
:102030002E4901EB8000C4F1010101EB4102C2EB2A
:10204000811105EB4101405C04EB4401C1EB8411BB
:1020500005EB4101234A515C084304EB4401C1EB09
:10206000841105EB41015054681CC5B27A2DD8DBB0
:10207000601CC4B2022CD2DB02242BE0002525E038
:1020800019480078401E00EB4001C1EB8010184950
:1020900001EB8001A01EC0F1010000EB4002C2EB89
:1020A000801005EB4000085C04EB4401C1EB841197
:1020B00005EB41010B4A515C084304EB4401C1EBC1
:1020C000841105EB41015054681CC5B27A2DD7DB51
:1020D000601CC4B2042CD1DBFFF762FB70BD0000B2
:1020E0003C4F00085A00002008000020346400081B
:1020F0001C66000870B5002422E000251CE0FE48A4
:102100000078401E00EB4001C1EB8010FB4901EB61
:102110008000C4F1010101EB4102C2EB811105EB2A
:102120004101405C04EB4401C1EB841105EB41012A
:10213000F34A5054681CC5B27A2DE0DB601CC4B26F
:10214000022CDADB022423E000251DE0EA480078B7
:10215000401E00EB4001C1EB8010EA4901EB800119
:10216000A01EC0F1010000EB4002C2EB801005EBA5
:102170004000085C04EB4401C1EB841105EB410114
:10218000DF4A5054681CC5B27A2DDFDB601CC4B234
:10219000042CD9DBD8480078401E02D001287CD11D
:1021A00086E1D94890F90000642190FBF1F201FB2F
:1021B00012000A2190FBF1F000F13006304601F0E8
:1021C00037FD222201210020FFF71EFBCE4890F9A7
:1021D00000000A2190FBF1F201FB120000F1300631
:1021E000304601F025FD292201210020FFF70CFBDC
:1021F0003A2001F01DFD2F2201210020FFF704FBF2
:10220000C24890F90000642190FBF1F201FB12003A
:102210000A2190FBF1F000F13006304601F008FD94
:10222000362201210020FFF7EFFAB84890F90000AC
:102230000A2190FBF1F201FB120000F1300630465A
:1022400001F0F6FC3D2201210020FFF7DDFA3A20E3
:1022500001F0EEFC432201210020FFF7D5FAAC4843
:1022600090F90000642190FBF1F201FB12000A21B9
:1022700090FBF1F000F13006304601F0D9FC4A2223
:1022800001210020FFF7C0FAA14890F900000A21BF
:1022900090FBF1F201FB120000E0B7E200F1300622
:1022A000304601F0C5FC512201210020FFF7ACFAB5
:1022B000984890F90000642190FBF1F201FB1200B4
:1022C0000A2190FBF1F000F13006304601F0B0FC3D
:1022D000202202210020FFF797FA8E4890F9000093
:1022E0000A2190FBF1F201FB120000F130063046AA
:1022F00001F09EFC272202210020FFF785FA2D2005
:1023000001F096FC2D2202210020FFF77DFA824881
:1023100090F90000642190FBF1F201FB12000A2108
:1023200090FBF1F000F13006304601F081FC3522DF
:1023300002210020FFF768FA774890F900000A218F
:1023400090FBF1F201FB120000F13006304601F083
:102350006FFC3C2202210020FFF756FA2D2001F0ED
:1023600067FC422202210020FFF74EFA6B4890F9E9
:102370000000642190FBF1F201FB12000A2190FBA6
:10238000F1F000F13006304601F052FC4A22022101
:102390000020FFF739FA614890F900000A2190FB0C
:1023A000F1F201FB120000F13006304601F040FC72
:1023B000512202210020FFF727FA5F2001F038FCAC
:1023C00057480078012803D05548007802280BD1DF
:1023D00053480078401EC0EBC0002130C2B201213A
:1023E0000020FFF711FA62E04D480078032803D07F
:1023F0004B48007804280BD149480078401EC0EBB8
:10240000C0002730C2B201210020FFF7FDF94EE0E5
:1024100043480078052803D04148007806280BD1AE
:102420003F480078401EC0EBC0002D30C2B20121F1
:102430000020FFF7E9F93AE039480078072803D08F
:102440003748007808280BD135480078C01FC0EB0A
:10245000C0001F30C2B202210020FFF7D5F926E0EC
:102460002F480078092803D02D4800780A280BD17E
:102470002B480078801FC0EBC0001F30C2B2022181
:102480000020FFF7C1F912E0254800780B2803D09F
:10249000234800780C280AD121480078401FC0EB5F
:1024A000C0001F30C2B202210020FFF7ADF9ADE13C
:1024B000154890F90000642190FBF1F201FB120035
:1024C0000A2190FBF1F04AF2B0314618304601F093
:1024D000E7FA262201210846FFF796F90A4890F903
:1024E00000000A2190FBF1F201FB12004AF2B03128
:1024F0004618304616E00000080000200468000876
:102500005A000020EC690008150000201600002089
:102510001700002018000020190000201A000020D9
:102520000A00002001F0BCFA2F2201210846FFF723
:102530006BF94AF2C31001F0B3FA382201210846C0
:10254000FFF762F9B34890F90000642190FBF1F2C3
:1025500001FB12000A2190FBF1F04AF2B03146185B
:10256000304601F09DFA3E2201210846FFF74CF962
:10257000A84890F900000A2190FBF1F201FB12003B
:102580004AF2B0314618304601F08AFA472201215A
:102590000846FFF739F94AF2C31001F081FA5022D8
:1025A00001210846FFF730F99B4890F900006421AB
:1025B00090FBF1F201FB12000A2190FBF1F04AF2CC
:1025C000B0314618304601F06BFA56220121084618
:1025D000FFF71AF9904890F900000A2190FBF1F2F8
:1025E00001FB12004AF2B0314618304601F058FAA9
:1025F0005F2201210846FFF707F9884890F900009B
:10260000642190FBF1F201FB12000A2190FBF1F032
:102610004AF2B0314618304601F042FA2622022131
:102620000120FFF7F1F87D4890F900000A2190FBA6
:10263000F1F201FB12004AF2B0314618304601F0C7
:102640002FFA2F2202210120FFF7DEF84AF2AD30E7
:1026500001F026FA382202210120FFF7D5F8704850
:1026600090F90000642190FBF1F201FB12000A21B5
:1026700090FBF1F04AF2B0314618304601F010FA02
:10268000412202210120FFF7BFF8654890F90000C0
:102690000A2190FBF1F201FB12004AF2B031461818
:1026A000304601F0FDF94A2202210120FFF7ACF883
:1026B0004AF2AD3001F0F4F9532202210120FFF774
:1026C000A3F8584890F90000642190FBF1F201FB57
:1026D00012000A2190FBF1F04AF2B0314618304660
:1026E00001F0DEF95C2202210120FFF78DF84D4850
:1026F00090F900000A2190FBF1F201FB12004AF26E
:10270000B0314618304601F0CBF965220221012094
:10271000FFF77AF84AF2DF3001F0C2F94248007858
:10272000012803D04048007802280BD13E480078A9
:10273000401E00EBC0002630C2B201210846FFF760
:1027400063F862E038480078032803D03648007800
:1027500004280BD134480078401E00EBC0002C3018
:10276000C2B201210846FFF74FF84EE02E4800782C
:10277000052803D02C48007806280BD12A48007879
:10278000401E00EBC0003230C2B201210846FFF704
:102790003BF83AE024480078072803D02248007824
:1027A00008280BD120480078C01F00EBC00026305D
:1027B000C2B202210120FFF727F826E01A4800786C
:1027C000092803D0184800780A280BD11648007849
:1027D000801F00EBC0002630C2B202210120FFF7AB
:1027E00013F812E0104800780B2803D00E48007848
:1027F0000C280AD10C480078401F00EBC00026309E
:10280000C2B202210120FEF7FFFF00BF00BFFEF7AA
:10281000C7FF70BD16000020170000201800002020
:10282000190000201A0000200A00002070B5954809
:10283000007830B90020944908700120934908704D
:102840000BE0904800783C2807D101208E490870A1
:102850008E49087000208E49087000242AE0002567
:1028600024E08C480078401E00EB4001C1EB801052
:10287000894901EB8000C4F1010101EB4102C2EB87
:10288000811105EB4101405C04EB4401C1EB841173
:1028900005EB4101814A515C084304EB4401C1EB63
:1028A000841105EB41015054681CC5B27A2DD8DB68
:1028B000601CC4B2022CD2DB7248007818B1714897
:1028C00000783C2837D1022432E000252CE0714802
:1028D0000078401E00EB4001C1EB8010704901EB15
:1028E000C0006949097801EB4102C2EB811100EB9C
:1028F0008100C4F1030101EB4102C2EB811105EB40
:102900004101405C04EB4401C1EB841105EB410142
:10291000624A515C084304EB4401C1EB841105EBAE
:1029200041015054681CC5B27A2DD0DB601CC4B282
:10293000042CCADBA3E002242AE0002524E0554849
:102940000078401E00EB4001C1EB8010554901EBBF
:102950008000C4F1030101EB4102C2EB811105EBE0
:102960004101405C04EB4401C1EB841105EB4101E2
:102970004A4A515C084304EB4401C1EB841105EB66
:1029800041015054681CC5B27A2DD8DB601CC4B21A
:10299000042CD2DB3F480078401E02D001286DD1C4
:1029A00034E0384890F90000642190FBF1F201FB1B
:1029B00012000A2190FBF1F000F13006304601F0E0
:1029C00037F9022211460020FEF71EFF2D4890F92C
:1029D00000000A2190FBF1F201FB120000F1300629
:1029E000304601F025F9092202210020FEF70CFFF4
:1029F0005F2001F01DF925480078C0EBC000801C65
:102A0000C2B202210020FEF7FFFE37E01D4890F918
:102A10000000642190FBF1F201FB12000A2190FBFF
:102A2000F1F04AF2B0314618304601F039F802228E
:102A300011460120FEF7E8FE124890F900000A2135
:102A400090FBF1F201FB12004AF2B0314618304619
:102A500001F026F80B2202210120FEF7D5FE4AF2F2
:102A6000DF3001F01DF80948007800EBC000801C41
:102A7000C2B202210120FEF7C7FE00BF00BFFEF771
:102A80008FFE70BD14000020090000200A00002005
:102A90000200002008000020D46B00085A0000202B
:102AA00074730008BC6D000870B500242AE000258E
:102AB00024E07D480078401E00EB4001C1EB80100F
:102AC0007A4901EB8000C4F1010101EB4102C2EB44
:102AD000811105EB4101405C04EB4401C1EB841121
:102AE00005EB4101724A515C084304EB4401C1EB20
:102AF000841105EB41015054681CC5B27A2DD8DB16
:102B0000601CC4B2022CD2DB67480078401E02D0A1
:102B1000012848D148E0674800684FF47A7190FB7B
:102B2000F1F201FB1200642190FBF1F000F130069C
:102B3000304601F07DF8022211460020FEF764FEC7
:102B40005C480068642190FBF1F201FB12000A214D
:102B500090FBF1F000F13006304601F069F80922EF
:102B600002210020FEF750FE524800680A2190FB27
:102B7000F1F201FB120000F13006304601F058F886
:102B8000102202210020FEF73FFE5F2001F050F8E6
:102B900049480078401EC0EBC000401CC2B2022170
:102BA0000020FEF731FE4CE0424800684FF47A7195
:102BB00090FBF1F201FB1200642190FBF1F04AF26C
:102BC000B0314618304600F06BFF0222114601205A
:102BD000FEF71AFE37480068642190FBF1F201FB12
:102BE00012000A2190FBF1F04AF2B031461830464B
:102BF00000F056FF0B2202210120FEF705FE2D48B2
:102C000000680A2190FBF1F201FB12004AF2B03198
:102C10004618304600F044FF142202210120FEF73E
:102C2000F3FD4AF2DF3000F03BFF23480078401EFE
:102C300000EBC000801CC2B202210120FEF7E4FDBF
:102C400000BF00BF02242AE0002524E016480078D7
:102C5000401E00EB4001C1EB8010184901EB8000E1
:102C6000C4F1030101EB4102C2EB811105EB41010B
:102C7000405C04EB4401C1EB841105EB41010C4ABB
:102C8000515C084304EB4401C1EB841105EB4101A5
:102C90005054681CC5B27A2DD8DB601CC4B2042C19
:102CA000D2DBFEF77DFD70BD08000020A46F000898
:102CB0005A0000200C0000200A0000208C7100083F
:102CC00000BFFEE77047000070B5002100230F220F
:102CD000C4780CB3164C246804F4E064C4F5E064D2
:102CE000210AC1F10403CA40447804FA03F184784C
:102CF0001440214309010F4C0678A155047804F0D3
:102D00001F050124AC4005786D114FF0E02606EB5D
:102D10008505C5F8004109E0047804F01F05012489
:102D2000AC40054D0678761145F8264070BD000090
:102D30000CED00E000E400E080E100E00249014326
:102D4000024A1160704700000000FA050CED00E037
:102D500070B504460D4616464FF480510F48FEF7F5
:102D600083F9052001F09EFA34B900243146284643
:102D700001F0E4FA044606E0012C04D100242846C0
:102D800000F06AFE04464FF480510448FEF76EF9E5
:102D9000052001F087FA204670BD0000000C0140BC
:102DA00070B504460D46164634B90024314628460F
:102DB00001F0E5FA044606E0012C04D1002428467F
:102DC00001F00EF80446204670BD000010B51F4803
:102DD0000078012839D100F0DFFF0446002C34D000
:102DE000FEF7D2FC012C30D0082C2ED0022C2CD097
:102DF000042C08D1022015490870012014490870DC
:102E0000FFF756F821E0032C06D101201149087084
:102E100000201149087018E00C2C16D100200F4931
:102E2000086008460088C0F3072204210020FFF74D
:102E30008FFF642001F052FA084802780521002033
:102E4000FFF786FF642001F049FA10BD040000205E
:102E500005000020010000200300002010000020D9
:102E600010B534480078022862D100F095FF04467E
:102E7000002C5DD0FEF788FC012C0FD12E48007885
:102E8000012803D104202C49087004E02A48007866
:102E9000401E29490870FFF70BF849E0082C0FD1B4
:102EA00025480078042803D101202349087004E054
:102EB00021480078401C20490870FEF7F9FF37E0F0
:102EC000022C05D101201B490870FEF789FE2FE076
:102ED000042C2DD118480078012806D002280AD0E9
:102EE000032811D0042821D117E0FFF777F8152027
:102EF000104908701BE0012010490870FFF7FAF82C
:102F000016200C49087012E000200C490870FFF7E9
:102F10008DFC17200749087009E001200749087057
:102F2000FFF7C2FD18200349087000E000BF00BF92
:102F300010BD000004000020050000200A00002051
:102F400010B525480078152844D100F025FF044627
:102F5000002C3FD0FEF718FC012C0FD11F48007841
:102F6000012803D102201D49087004E01B480078A5
:102F7000401E1A490870FFF731F82BE0082C0FD1DA
:102F800016480078022803D101201449087004E093
:102F900012480078401C11490870FFF71FF819E02B
:102FA000022C05D102200C490870FEF781FF11E0C8
:102FB000042C0FD10948027800210846FFF7C8FE0B
:102FC000642001F08BF9012003490870FDF732FD00
:102FD000FEF706FE10BD00000400002008000020DF
:102FE0002DE9FC47FB48007816287DD100F0D4FE7F
:102FF0008246BAF1000F77D0FEF7C6FBBAF1010F97
:1030000073D1F5480078012803D0F34800780228EE
:1030100027D1F1490978C1F10200FDF74CF90246C8
:103020000B46CDE900010020EC4901F071FA06469B
:103030000F46EB4890F90000FDF73DF98046324617
:103040003B46FDF791F80446FDF746F940B2E449E6
:103050000870084690F90000172801DD1720087055
:10306000F0E0DD480078032803D0DB48007804282E
:1030700027D1D9490978C1F10400FDF71CF90246AE
:103080000B46CDE900010020D44901F041FA804609
:103090008946D44890F90000FDF70DF906464246EE
:1030A0004B46FDF761F80446FDF716F940B2CD49ED
:1030B0000870084690F900003B28D1DD3B200870DD
:1030C000C0E0C5480078052803D0C348007806282A
:1030D0002AD1C1490978C1F10600FDF7ECF8804614
:1030E00042460B46002001E07DE2AEE0BB4901F024
:1030F0000FFA06460F46BC4890F90000FDF7DBF8D2
:1031000032463B46CDE90001FDF72EF80446FDF7B7
:10311000E3F840B2B4490870084690F900003B2833
:103120009EDD3B2008708DE0AB480078072803D077
:10313000A9480078082827D1A7490978C1F10800D3
:10314000FDF7B9F802460B46CDE900010020A3497E
:1031500001F0DEF906460F46A44890F90000FDF79D
:10316000AAF8804632463B46FCF7FEFF0446FDF7D0
:10317000B3F840B29D490870084690F900006328F2
:1031800060DD632008705DE093480078092803D073
:10319000914800780A2826D18F490978C1F10A00A0
:1031A000FDF789F8804642460B4600208B4901F026
:1031B000AFF9CDE900018E4890F90000FDF77BF8EA
:1031C0000646DDE90023FCF7CFFF0446FDF784F84F
:1031D00040B287490870084690F900000C2831DD9C
:1031E0000C2008702EE07C4800780B2803D07A4829
:1031F00000780C2826D178490978C1F10C00FDF738
:103200005AF8064632460B460020744901F080F910
:1032100080468946774890F90000FDF74CF8424611
:103220004B46CDE90001FCF79FFF0446FDF754F83B
:1032300040B270490870084690F900001F2801DD6F
:103240001F200870FEF756FFFCE1BAF1080F7DD190
:1032500061480078012803D05F480078022826D111
:103260005D490978C1F10200FDF725F806463246AE
:103270000B460020594901F04BF9CDE900015848AF
:1032800090F90000FDF717F80446DDE90023FDF78B
:103290000CF88046FDF720F840B251490870084606
:1032A00090F90000002801DA0020087003E14A4884
:1032B0000078032803D048480078042827D14649DD
:1032C0000978C1F10400FCF7F6FF02460B46CDE990
:1032D00000010020414901F01BF906460F46414814
:1032E00090F90000FCF7E7FF804632463B46FCF7CA
:1032F000DCFF0446FCF7F0FF40B23A49087008468C
:1033000090F900000028D1DA00200870D3E032489C
:103310000078052803D030480078062829D12E49A6
:103320000978C1F10600FCF7C6FF804642460B460D
:1033300000202A4901F0ECF806460F462A4890F989
:103340000000FCF7B8FF32463B4600E0B6E0CDE9AE
:103350000001FCF7AAFF0446FCF7BEFF40B2224979
:103360000870084690F9000000289FDA00200870D5
:10337000A1E019480078072803D0174800780828EA
:103380003AD115490978C1F10800FCF794FF0646C7
:1033900032460B460020114901F0BAF804460D46AA
:1033A000124890F90000FCF786FF22462B46CDE933
:1033B0000001FCF77AFF8046FCF78EFF40B20B4914
:1033C0000870084690F90000002874DA00200870A0
:1033D00071E00000040000200A00002000002440EA
:1033E0001500002016000020170000201800002003
:1033F000190000201A00002093480078092803D003
:10340000914800780A2827D18F490978C1F10A002C
:10341000FCF751FF064632460B4600208B4901F06F
:1034200077F804460D468A4890F90000FCF743FF00
:1034300022462B46CDE90001FCF737FF8046FCF71A
:103440004BFF40B282490870084690F900000128FD
:1034500031DA012008702EE07B4800780B2803D079
:10346000794800780C2826D177490978C1F10C00F9
:10347000FCF721FF064632460B460020734901F057
:1034800047F880468946734890F90000FCF713FF1F
:10349000044642464B46FCF708FFCDE90001FCF725
:1034A0001BFF40B26B490870084690F900000128E4
:1034B00001DA01200870FEF71DFEC3E0BAF1020F29
:1034C00011D161480078012805D1022062490870B5
:1034D000FEF7EEFCB6E05C480078401E5A490870E2
:1034E000FEF708FEAEE0BAF1040F7CD15648007832
:1034F0000C2879D1594890F900000A2190FBF1F28B
:1035000001FB1200554991F900100A2291FBF2F1DA
:1035100040EA0110C4B2224604210020FFF740FC1B
:10352000642000F0DBFE4E4890F900000A2190FB79
:10353000F1F201FB12004A4991F900100A2291FBB5
:10354000F2F140EA0110C4B2224603210020FFF745
:1035500027FC642000F0C2FE424890F900000A21D6
:1035600090FBF1F201FB12003E4991F900100A2292
:1035700091FBF2F140EA0110C4B222460221002080
:10358000FFF70EFC642000F0A9FE374890F9000018
:103590000A2190FBF1F201FB1200334991F900106E
:1035A0000A2291FBF2F140EA0110C4B2224608213E
:1035B0000020FFF7F5FB642000F090FE244890F90E
:1035C00000000A2190FBF1F201FB1200204991F961
:1035D00000100A2291FBF2F140EA0110C4B2224627
:1035E0000721002001E02DE025E0FFF7D9FB642052
:1035F00000F074FE174890F900000A2190FBF1F2E8
:1036000001FB1200134991F900100A2291FBF2F11B
:1036100040EA0110C4B2224605210020FFF7C0FB9A
:10362000642000F05BFE01200B490870FDF702FAF0
:10363000FEF7D6FA06E004480078401C02490870FC
:10364000FEF758FDBDE8FC870A000020000024407A
:10365000190000201A00002004000020150000209E
:103660001600002017000020180000202DE9FC475C
:103670004F480078172833D100F08EFB8246BAF10C
:10368000000F2DD0FEF780F8BAF1010F29D149497A
:103690000978C1F10100FCF70EFE064632460B46E2
:1036A0000020454900F034FF04460D46434890F998
:1036B0000000FCF700FE804622462B46FCF754FD36
:1036C000CDE90001FCF708FE40B23C49087008460D
:1036D00090F900003C2801DB3C200870FFF7A6F8B9
:1036E00064E0BAF1080F29D132490978C1F101002B
:1036F000FCF7E1FD064632460B4600202E4900F05D
:1037000007FF04460D462D4890F90000FCF7D3FD55
:10371000804622462B46FCF7C8FDCDE90001FCF7A8
:10372000DBFD40B225490870084690F900000028EA
:1037300001DC00200870FFF779F837E0BAF1020FDA
:1037400010D11C48007828B9022019490870FEF7EA
:10375000AFFB2BE017480078401E16490870FFF7B2
:1037600065F823E0BAF1040F20D11248007801284F
:1037700015D11248027801210020FFF7E9FA6420F0
:1037800000F0ACFD01200A49087000200C490870C7
:10379000FDF750F9FDF7F8FFFEF722FA06E00548BD
:1037A0000078401C03490870FFF740F8BDE8FC872B
:1037B000040000200A000020000024401400002023
:1037C000060000202DE9FC4751480078182832D126
:1037D00000F0E2FA8246BAF1000F2CD0FDF7D4FFD8
:1037E000BAF1010F28D14B490978C1F10300FCF768
:1037F00062FD064632460B460020474900F088FE2F
:1038000004460D4645480068FCF755FD80462246B3
:103810002B46FCF7A9FCCDE90001FCF75DFD3F4913
:10382000086008460068B0F57A7F02DB40F2E730B6
:103830000860FFF739F968E0BAF1080F26D1354979
:103840000978C1F10300FCF736FD064632460B4607
:103850000020314900F05CFE04460D462F48006808
:10386000FCF729FD804622462B46FCF71EFDCDE9DC
:103870000001FCF731FD294908600846006800286E
:1038800001DA00200860FFF70FF93EE0BAF1020FFD
:1038900011D120480078012805D102201C49087068
:1038A000FEF706FB31E01B480078401E19490870FE
:1038B000FFF7FAF829E0BAF1040F26D1154800788D
:1038C00003281BD115480088C0F3072202210020DD
:1038D000FFF73EFA642000F001FD10480278032152
:1038E0000020FFF735FA642000F0F8FC01200849B9
:1038F0000870FDF79FF8FEF773F906E005480078B9
:10390000401C04490870FFF7CFF8BDE8FC870000B1
:10391000040000200A000020000024400C000020C9
:103920007047000029B1064A92690243044B9A612C
:1039300004E0034A92698243014B9A617047000098
:103940000010024030B500210022002400232D4D3C
:103950006D6805F00C0121B1042905D0082923D197
:1039600005E0294D056022E0274D05601FE0254D4B
:103970006D6805F47012234D6D6805F480340225DE
:1039800005EB92421CB9214D554305600BE01D4DDE
:103990006D6815F4003F03D01C4D5543056002E0EF
:1039A000194D5543056002E0174D056000BF00BF8B
:1039B000144D6D6805F0F0010909154D6B5C056843
:1039C000DD4045600F4D6D6805F4E061090A104D5A
:1039D0006B5C4568DD4085600A4D6D6805F460519B
:1039E000C90A0B4D6B5C4568DD40C560054D6D68CF
:1039F00005F44041890B074D6B5CC568B5FBF3F5D9
:103A0000056130BD0010024000127A0000093D003F
:103A10001B0000202B00002070B5002516E020219F
:103A20000C48FDF721FB6006040E40210948FDF714
:103A30000EFB012802D144F0010401E024F001044E
:103A400020210448FDF712FB681CC5B2082DE6DBF7
:103A5000204670BD0008014070B504460025FDF702
:103A600063FCA020FDF7F8FBFDF706FB05462046AA
:103A7000FDF7F2FBFDF700FB0546FDF755FCA12025
:103A8000FDF7EAFBFDF7F8FA0546FDF767FB03498A
:103A90000870FDF77FFC284670BD00003300002051
:103AA0002DE9F0478CB08146C9F3072609F0FF07DE
:103AB000DFF870A1A12E12DBA32E10DCA12F0EDBEC
:103AC000A7F1A100A6F1A101C1EB011202EB411186
:103AD00000EB410000EB40000AEBC00820E0A92EFB
:103AE00008D1A12F06DB07F1790000EB40000AEBBB
:103AF000C00815E0B02E13DBF72E11DCA12F0FDB71
:103B0000A7F1A100A6F1B001C1EB011202EB411136
:103B100000EB410000F5BC7000EB40000AEBC00870
:103B200010214148FDF7A0FA0B2000F0A1FAC8F3DC
:103B3000074000F09DFAC8F3072000F099FA08F05A
:103B4000FF0000F095FA002000F092FA00250DE049
:103B5000FFF762FF00024DF82500FFF75DFF5DF8FB
:103B6000251008434DF82500681CC5B20C2DEFDB6D
:103B700010212D48FDF77AFA00244DE0002547E09A
:103B80003DF8250000F40040B0F5004F1DD1A81C01
:103B900008280ADA254810F81400A91C01228A40D6
:103BA0001043224901F814002BE0012000EB4400EF
:103BB0001E49095CA81F012282401143C8B201219D
:103BC00001EB4401194A50541BE0A81C08280ADAEA
:103BD000164810F81400A91C01228A40904313498A
:103BE00001F814000DE0012000EB44000F49095CCE
:103BF000A81F012282409143012000EB44000B4AA0
:103C000011545DF8250040004DF82500681CC5B230
:103C10000C2DB5DB601CC4B20B2CAFDB0CB0BDE8C7
:103C2000F087000080CF030000080140440000201E
:103C30002DE9BE4782460AF0FF08DFF85091B8F13F
:103C4000200F08DBB8F17E0F05DCA8F1200000EBA7
:103C5000400009EB8007DFF8349109F10C094AF6BE
:103C6000A12086420BD34AF6FE20864207D8A6F54D
:103C70002A40A13800EB400009EB80070EE04AF62D
:103C8000A13086420AD34AF6C030864206D8A6F54D
:103C90002B40423800EB400009EB800710213C48E4
:103CA000FDF7E2F90B2000F0E3F9C7F3074000F05D
:103CB000DFF9C7F3072000F0DBF9F8B200F0D8F91C
:103CC000002000F0D5F9002505E0FFF7A5FE0DF86E
:103CD0000500681CC5B20C2DF7DB10212C48FDF740
:103CE000C5F900244DE0002547E01DF8050000F06F
:103CF000800080281DD1A81C08280ADA254810F861
:103D00001400A91C01228A401043224901F8140022
:103D10002BE0012000EB44001E49095CA81F012292
:103D200082401143C8B2012101EB4401194A5054A9
:103D30001BE0A81C08280ADA164810F81400A91C71
:103D400001228A409043134901F814000DE001203C
:103D500000EB44000F49095CA81F012282409143F7
:103D6000012000EB44000B4A11541DF805004006E9
:103D7000000E0DF80500681CC5B20C2DB5DB601CEB
:103D8000C4B2062CAFDBBDE8BE870000406D060064
:103D9000000801403800002010B51048FDF753F925
:103DA0000F2121EA2024322000F098FAA4B10B4818
:103DB000FDF749F90F2121EA2020A0420CD100BFD4
:103DC0000648FDF740F90F2131EA2020F8D10A20FA
:103DD00000F084FA204610BD0020FCE700080140F6
:103DE00070B50446FDF7BCFA0025A220FDF76AFA7B
:103DF000FDF77EF905462046FDF764FAFDF778F9F0
:103E00000546FDF7ADFAA320FDF75CFAFDF770F962
:103E10000546FDF7E5F903490870FDF7D7FA28468E
:103E200070BD00003200002010B5824800780028E4
:103E30007DD0814800781628FAD000220421012084
:103E4000FEF7AEFF7D48007800F00F007B4909784F
:103E5000C1F3011101EB810100EB410078490870C9
:103E6000002203210120FEF79BFF7448007800F038
:103E70000F0072490978C1F3021101EB810100EBD7
:103E8000410040B26F490870002202210120FEF774
:103E900087FF6A48007800F00F0068490978C1F38D
:103EA000021101EB810100EB410040B2664908704C
:103EB000002208210120FEF773FF6048007800F01F
:103EC0000F005E490978C1F3021101EB810100EB9B
:103ED000410040B25D490870002207210120FEF731
:103EE0005FFF5648007800F00F0054490978C1F38D
:103EF000001101EB810100EB4100554908700022DF
:103F000005210120FEF74CFF4C48007800F00F001F
:103F10004A490978C1F3011101EB810100EB41002D
:103F20004C490870474890F900004B4900E01FE0F9
:103F300091F9001088421BD143480078C0B9474826
:103F40000068401C4549086008460088C0F3072205
:103F500004210020FEF7FCFE642000F0BFF93F487A
:103F6000027805210020FEF7F3FE642000F0B6F988
:103F70003148007801285CD12E480078012806D00D
:103F80000B280CD00C280FD00D2817D111E0FDF70D
:103F9000FBFBFDF725FE0020264908700EE0FDF72B
:103FA000F3FBFCF70DFE09E0FDF7EEFBFCF7A4FDCB
:103FB00004E0FDF7E9FBFCF7D1FD00BF00BF1D48A1
:103FC00000780C2803D01B4800780D2808D1042164
:103FD0002348FDF74BF808212148FDF745F828E074
:103FE0002048007840B1204800780A2801DB0120F1
:103FF00000E00020C0430BD11A48007808B101202E
:1040000000E00020C0430CD018480078012808D1F7
:1040100004211348FDF728F808211148FDF726F878
:1040200007E004210E48FDF721F808210C48FDF7B0
:104030001DF810BD06000020040000203200002002
:104040001500002016000020170000201800002096
:10405000190000201A000020140000201000002089
:10406000000801400100002003000020090000209A
:1040700070B50446002518E020210D48FCF7F4FF38
:1040800004F08000802804D180210948FCF7EEFF6D
:1040900003E080210648FCF7E7FF6006040E2021BC
:1040A0000348FCF7E3FF681CC5B2082DE4DB70BDD4
:1040B00000080140704710B500F002F810BD000084
:1040C0000CB50020019000903248006840F4803028
:1040D0003049086000BF2F48006800F400300090AD
:1040E0000198401C0190009818B90198B0F5A06F94
:1040F000F1D12848006810F4003F02D00120009060
:1041000001E0002000900098012842D12248006878
:1041100040F01000204908600846006820F00300C5
:1041200008600846006840F00200086019484068CE
:10413000184948600846406848600846406840F4AE
:10414000806048600846406820F47C10486008465B
:10415000406840F4E81048600846006840F080700D
:10416000086000BF0B48006810F0007FFAD00948D3
:10417000406820F00300074948600846406840F066
:104180000200486000BF0348406800F00C000828A7
:10419000F9D10CBD0010024000200240042808D1D3
:1041A0004FF0E021096941F004014FF0E022116174
:1041B00007E04FF0E021096921F004014FF0E0220F
:1041C00011617047012808D14FF0E021096941F0E1
:1041D00001014FF0E02211610EE0811C08D14FF087
:1041E000E021096921F001014FF0E022116103E0B3
:1041F00000214FF0E0229161704710B50146002286
:1042000000230020CB10022B03D14FF0E0242269C1
:1042100002E04FF0E024E26901248C40144201D016
:10422000012000E0002010BD70474FF0E021486100
:104230007047000010B51348006840F001001149B4
:10424000086008464068104908400E494860084622
:1042500000680E4908400B4908600846006820F4D1
:10426000802008600846406820F4FE0048604FF453
:104270001F008860FFF71FFF4FF0006004490860CF
:1042800010BD0000001002400000FFF8FFFFF6FE26
:1042900008ED00E010B5FDF775F9012000F02BF8EE
:1042A00010BD000010B504460B49098801FB04F05D
:1042B000FFF7BBFF0020FFF785FF0120FFF782FF1C
:1042C00000BF1020FFF799FF0028FAD06FF001001F
:1042D000FFF778FF10BD00003000002010B5044645
:1042E00003E040F2E730FFF7DDFF2000A4F1010119
:1042F0008CB2F6D110BD10B5044603E04FF47A70CD
:10430000FFF7ECFF2000A4F101018CB2F6D110BD43
:1043100000B585B06846FFF715FB0420FFF73EFFA8
:1043200003490198B0FBF1F00249088005B000BDD7
:1043300040420F003000002000BFFEE770B5054688
:104340000C460026FCF7F0FFA020FCF785FFFCF7E9
:1043500093FE06462846FCF77FFFFCF78DFE0646D7
:104360002046FCF779FFFCF787FE0646FDF712F8BA
:10437000FCF782FE0646FDF70DF8304670BD70B5BD
:1043800005460C46FCF7ECFF0026A220FCF79AFF3E
:10439000FCF7AEFE06462846FCF794FFFCF7A8FEA5
:1043A00006462046FCF78EFFFCF7A2FE0646FDF708
:1043B0000DF8304670BD490050EAC12018BF0420F6
:1043C0004A0D18BF40F0010040F2FF72B2EB515F9E
:1043D00008BF40F00200012808BF052070472DE902
:1043E000F0414F1E00EBC7010446D1E9000115461C
:1043F0001E4637F006020DD02A463346FCF71BF85E
:104400007F1E04EBC703D3E90023FBF7ADFE37F0B3
:104410000602F1D1022F25D0042F13D0062F18BF8A
:10442000BDE8F0812A463346FCF705F8D4E90A23B3
:10443000FBF79AFE2A463346FBF7FDFFD4E9082333
:10444000FBF792FE2A463346FBF7F5FFD4E9062335
:10445000FBF78AFE2A463346FBF7EDFFD4E9042337
:10446000FBF782FE2A463346FBF7E5FFD4E9022339
:10447000FBF77AFE2A463346FBF7DDFFD4E900233B
:10448000BDE8F041FBF770BE024A00201107FCF7BF
:10449000B3B8000001FDFFFF02E008C8121F08C109
:1044A000002AFAD170477047002001E001C1121FB5
:1044B000002AFBD1704700000149086070470000E6
:1044C00034000020FFF724FFFCF7CEFFFDF738F89B
:1044D000FCF796FFFDF71AF8FCF7D8FFFCF7B0FFE2
:1044E000FCF7A6FFFDF747F8FCF7D8FFFFF7D2FE71
:1044F0000DE0FEF76BFCFEF7B3FCFEF721FDFEF7C7
:104500006FFDFFF7B3F8FFF75DF9FFF78DFCF0E7FC
:104510002DE9F04D16460F460546020094B01C46A4
:1045200021F0004123F0004014BF4FF0010C4FF088
:10453000000C0CEB470CFE4B0CEB03084FEA630C32
:10454000E0452DD35FEA060818BF4FF0010808EBDD
:1045500044089844F74B984522D3F74B50EA060C91
:1045600002D09F4205D14AB914B000201946BDE8D7
:10457000F08D002A08BF4FF0000C01D04FF0010C65
:104580000CEB470313F5001F0AD8002E14BF4FF0A1
:10459000010C4FF0000C0CEB440313F5001F08D97D
:1045A00014B03246234628463946BDE8F04DFBF7A5
:1045B000DBBDDFF888B34FF0000A002FB8BF5845C5
:1045C00023DADF4B9842A8BF4FF0020A1DDADA4B1C
:1045D00083421ADCDB4B03EB2053142B08DDC3F1C1
:1045E000340C26FA0CF303FA0CFCB4450DD108E0A8
:1045F0005EB9C3F1140C20FA0CF303FA0CFC8445E9
:1046000003D103F00103C3F1020A51EA020321D1ED
:10461000002C1FDA002F18BFBAF1020F02D0BAF136
:10462000010F0BD00220FFF747FF14B00022BDE8B6
:10463000F04D13461046C049FBF76FBF0220FFF74D
:104640003BFF14B02A463B46BDE8F04D0020BA4976
:10465000FBF763BF33006DD1584525D107F180408A
:1046600010F5801001BF002A0020B34914B008BF24
:10467000BDE8F08DB048884207DC002CA1BF184689
:10468000214614B0BDE8F08D07E0002CBFBF1846EE
:1046900084F0004114B0BDE8F08DAB497944D1E914
:1046A000000114B0BDE8F08DDFF88CC2604526D162
:1046B000002C1FDA19B1594513D1DAB90AE0002AE2
:1046C00040F0DA829D4A394614B0002062F31E01A0
:1046D000BDE8F08D0020394614B060F31E01BDE83E
:1046E000F08D07DA14B03B46BDE8F04D002061467E
:1046F000FBF713BF14B010463946BDE8F08D59459D
:1047000018DAB4F1804F0DD0A4F10053B3F1FF5388
:1047100010D13B1E0EDB14B01046BDE8F04D19461B
:1047200000F0E6BB3B4614B01046BDE8F04D19461C
:10473000FBF781BE27F00043A2BBE1B1594538D158
:10474000002F06DD002CA1BF0020594614B0BDE8A3
:10475000F08D002F01DD002C1FDB002F16DA002C5E
:1047600014DBBAF1010F4FF0000014BF7349774911
:1047700014B0BDE8F08DBAF1020F18BF002F0CD0B5
:10478000BAF1010F09D1002F07DA0CE0002FB8BFF2
:10479000002C0EDABAF1010F05D0002014B001464A
:1047A000BDE8F08D05E014B000204FF00041BDE8F9
:1047B000F08D4FF0010C0CEBE7720D9252EA0A02F9
:1047C0000BD0634A90427DDD624B634A984216DD0E
:1047D0008A420EDB002C1CDB2CE00120FFF76CFE74
:1047E00014B00022BDE8F04D134610461146FBF709
:1047F00094BE5148884202DC002C0ADC1AE0914247
:1048000002DA002C16DA04E04B4B99421EDD002C34
:1048100010DD0220FFF750FE40F2013200204FF081
:10482000E041FBF7E9FE454A14B061F31E02114670
:10483000BDE8F08D0220FFF73FFEFFF725FE3E4A60
:1048400014B061F31E021146BDE8F08D0022284627
:104850003946FBF72AFD054688466FF00102FBF753
:10486000CBFE4FF055323D4BFBF722FD2A46434627
:10487000FBF7E1FD00223A4BFBF71AFD07468B469A
:104880002A46434610461946FBF7D5FD3A465B4695
:10489000FBF7D1FD09910C904FF0C042314B2846F7
:1048A0004146FBF7C8FD07468B462F4A2D4B099919
:1048B0000C98FBF7C0FDCDE901102C4A2C4B284683
:1048C000414600E019E0FBF7B6FDDDE90132FBF7F8
:1048D000ECFC3A465B4605910890FBF745FC002549
:1048E00088463A465B462846FBF7DFFC059B089A5C
:1048F000FBF7DEFC024600F076B90020B1F5801F20
:1049000007DA352228461946FBF776FE05466FF092
:10491000340000EB2150A0F2FF300190C1F31300EE
:1049200040F07F6141F0405102911249884223E0FA
:10493000FFFF1F00FFFF0F000000F03F0000F07FAF
:104940000000404301FCFFFFB83A00000000F0FF08
:104950000000E0410000F043FFFFEF3F5555D53F19
:104960000000E03F4715F73FFE822B6544DF5DF80E
:104970000BAE543E8E980300D8BF4FF0000B0EDDF7
:10498000FE498142C8BF4FF0010B08DC01984FF08F
:10499000000B401C01900298A0F580100290F8488E
:1049A0000299784400EBCB000B911090D0E90023E2
:1049B0002846FBF77AFC009010980791D0E9002375
:1049C00028460B99FBF7D0FB02460B460020ED4929
:1049D000FBF7A3FD05910B46024608900799009846
:1049E000FBF729FD0690E84888460027784402999D
:1049F00000680E904FF0005040EA610000EB8B40E1
:104A000000F5002110980291D0E900230E98FBF7E1
:104A10004CFC2A460B9BFBF74BFC3A464346FBF704
:104A20000AFD05460B9138464146029B0E9AFBF75C
:104A300002FD079B009AFBF73BFC2A460B9BFBF70A
:104A400034FC059B089AFBF7F6FC0B911090069A34
:104A5000434610461946FBF7EEFC05460246CB4896
:104A60000B46009106217844FFF7B9FC009B2A46CB
:104A70000291089010461946FBF7DDFC029B089A4C
:104A8000FBF7D9FC05460591434638461946069A78
:104A9000FBF76AFB0B9B109AFBF7CDFC2A46059BA4
:104AA000FBF762FB3A4643460591089010461946CB
:104AB000FBF7C1FC0022B64B00910C90FBF754FBB6
:104AC000059B089AFBF750FB0D463A46B04B38461B
:104AD000FBF7EBFB009B0C9AFBF7E7FB059B089AA7
:104AE000FBF7E6FB11913A460C902B4610464146E7
:104AF000FBF7A1FC079100904346069A11990C9888
:104B0000FBF799FC804603912B463A460B99109887
:104B1000FBF791FC4246039BFBF726FB0591804681
:104B20000B46024607990098FBF71EFB00200F4634
:104B30000546079B009AFBF7B8FB4246059BFBF72F
:104B4000B7FB804609914FF06042924B28463946A8
:104B5000FBF771FC009102908F4A8E4B40460999F9
:104B6000FBF769FC804603918C4A8D4B28463946F9
:104B7000FBF761FC4246039BFBF7F6FA894A7A444D
:104B800002EBCB03D3E90023FBF7EEFA0690039187
:104B90000198FBF790FB0746DDE902030591069AB1
:104BA0000099FBF7E1FA804A7A4402EBCB0BDBE990
:104BB0000023FBF7D9FA3A46059BFBF7D5FA002507
:104BC00088463A462846059BFBF76FFBDBE9002346
:104BD000FBF76BFB009B029AFBF767FB039B069AB4
:104BE000FBF766FB0246002006900D98654FAAF180
:104BF0000103184301D16D4F069000200B46009031
:104C000030462146FBF717FC82468B46234630464A
:104C10001946009AFBF749FB2A464346FBF70BFC73
:104C200052465B46FBF7A0FA06468A462A464346AA
:104C300021460098FBF7FFFB04460D4632465346DB
:104C4000FBF792FA5A4A8B46914226DBABEB020302
:104C500053EA000210D122462B46FBF726FB804682
:104C60000591544A544B30465146FBF77DFA424673
:104C7000059BFBF7D9FC30D20220FFF71DFC40F268
:104C8000013200204FF0E041FBF7B6FC0A463946FE
:104C900014B062F31E01BDE8F08D484B2BF00042CA
:104CA0009A421AD3464A0BEB020353EA000208D198
:104CB00022462B46FBF7F9FA32465346FBF7B4FC83
:104CC0000BD80220FFF7F8FBFFF7DEFB0A46394658
:104CD00014B062F31E01BDE8F08D2BF0004039499D
:104CE000394A01EB20514FF00008824223DA481C78
:104CF0004FF4801121FA00F05844C0F30A51334AAE
:104D0000A1F2FF317A44324B1268CB4020EA030310
:104D1000C0F3130040F4801CC1F114002CFA00F819
:104D2000BBF1000FB8BFC8F1000820462946FBF7C9
:104D3000BCFA04460D4622462B4630465146FBF748
:104D400013FA4FF0000B5A46224B58460591FBF7D9
:104D500072FB00900791204A204B58460599FBF7BB
:104D60006AFB0491029022462B4658460599FBF7B0
:104D70009CFA32465346FBF79BFA31E07AB60B00B9
:104D80002A3700000000F03F683700009636000028
:104D90000000084009C7EE3FFD033ADCF5015B1453
:104DA000E02F3EBE6E350000343500000000F0BF3D
:104DB00000009040FE822B654715973C00CC904048
:104DC00000346F3F01FCFFFF0000E03F5034000063
:104DD000FFFF0F00432EE63F396CA80C615C20BE3C
:104DE0003F4A404BFBF727FB049B029AFBF7BCF9B9
:104DF00006468A46079B009AFBF7B6F904460D461D
:104E0000079B009AFBF751FA32465346FBF750FADC
:104E1000064622462B46099110461946FBF70BFB26
:104E20008346024630488A460B4605217844FFF700
:104E3000D6FA5A465346FBF7FEFA22462B46FBF7B4
:104E400037FA82468B46324620462946099BFBF7B5
:104E5000F2FA3246099BFBF787F905910890002288
:104E60004FF0804350465946FBF71FFA0646009123
:104E700052465B4620462946FBF7DDFA3246009B48
:104E8000FBF74BFB059B089AFBF70FFA22462B46D4
:104E9000FBF70BFA0022154BFBF70AFA0D46044606
:104EA00001EB08510815002810DC4246204629462F
:104EB000FBF7A2FBFFF77FFA042808BFFFF7E4FA2D
:104EC000424620462946FBF797FB044606980B46C8
:104ED00014B022463946BDE8F04DFBF7ACBA0000ED
:104EE000EF39FAFE422EE63F003300000000F03FAB
:104EF0002DE9F04106460F46FBF7BCFB04000D46CA
:104F000018BF0120284320F00040C0F17F6000F16D
:104F1000E040C00F0ED0301C18BF0120384320F0F5
:104F20000040C0F17F6000F1E040C00F04BF0120ED
:104F3000FFF7C2FA20462946BDE8F08100000000D4
:104F40000000000000000000000000000000000061
:104F50000000000000000000000000000000000051
:104F60000000000000000000000000000000000041
:104F70000000000000000000000000000000000031
:104F80000000000000000000000000000000000021
:104F90000000000000000000000000000000000011
:104FA000000000000000000000000002060E1E3E8F
:104FB0001E0E0602000000000000000000000000BD
:104FC00000000000000000000000000000000000E1
:104FD00000000000000000000000000000000000D1
:104FE00000000000000000000000000000000000C1
:104FF00000000000000000000000000000000000B1
:1050000000000000000000000000000000000000A0
:105010000000000000000000000000000000000090
:105020000000000000000000000000000000000080
:105030000000000000000000000000000000000070
:105040000000000000000000000000000000000060
:105050000000000000000000000000000000000050
:105060000000000000000000000000000000000040
:105070000000000000000000000000000000000030
:105080000000000000000000000000000000000020
:105090000000000000000000000000000000000010
:1050A0000000000000000000000000000000000000
:1050B00000000000000000000000000000000000F0
:1050C00000000000000000000000000000000000E0
:1050D00000000000000000000000000000000000D0
:1050E00000000000000000000000000000000000C0
:1050F00000000000000000000000000000000000B0
:10510000000000000000000000000000000000009F
:10511000000000000000000000406070787C7870A3
:1051200060400000000000000000000000000000DF
:1051300000000000000000000000000103070F1F36
:105140003F7F7F3F1E0E06020000000000000000AF
:10515000000000000000000000000000000000004F
:10516000000000000000000007070700000000002A
:10517000000000000000000000000000000000002F
:10518000000000000000000000000000000000001F
:10519000000000000000000000000000000000000F
:1051A00000000000000000000000000000010307F4
:1051B0000F1F3F7EFCF8F0E2C6CE9EBE3E7E7EFE16
:1051C000FEFEFFFF7F3F1F0F070301000000FFFFF0
:1051D000FF010101FFFEFC00FFFFFFC6C6C6E7633B
:1051E0002100FFFFFF6060607F3F1F00FFFFFF00A7
:1051F00000FFFFFF00FFFFFF003F7FFFC0C0DFFF9A
:10520000FFCCC6C3613018000000000000000000A1
:10521000000000000000000000000000000000008E
:105220000000000000000080C0E0F0F8F0E6E7E7D2
:10523000E7F3F3F9F9FCFCFEFEFFFF7F3E1C80C0A4
:10524000F8F0E0C080000000FCFEFF838383FF7F56
:105250003F00C0E0F0303030F0F0F000C0E0F0305F
:105260003030F0F0F000FFFFFF3030F0F0F000F7EA
:10527000F7F700FFFFFF000000C0E0301010F0E083
:10528000000000000000000000000000000000001E
:10529000000000000000000000000000000000000E
:1052A00000000000000000000080C0E0F0F8FCFEFC
:1052B000FE7C7870604000000000000000000000EC
:1052C00000000000000000000000000000000000DE
:1052D00000000000000000000000000000000000CE
:1052E00000000000000000000000000000000000BE
:1052F00000000000000000000000000000000000AE
:10530000000000000000000000000000000000009D
:10531000000000000000000000000000000000008D
:10532000000000000000000000000000000000007D
:10533000000000000000000000000000000000006D
:10534000000000000000000000000000000000005D
:10535000000000000000000000000000000000004D
:10536000000000000000000000000000000000003D
:10537000000000000000000000000000000000002D
:10538000000000000000000000000000000000001D
:10539000003F0000003F21003F203F00003F003F52
:1053A000032E30000000003F10231E003F21003F6D
:1053B000203F00003F003F003F2010003F00302E04
:1053C000213C003F21003F203F2010003F001F20D4
:1053D000201F003F00003F000000003F00073F008B
:1053E0003F001F20201F001F20203F003F20303F94
:1053F000003F001F21211D000000000000000000F0
:105400000000000000000000007E02FE027E00603E
:105410001090F000F01010F000FE00D030100000EE
:10542000003CE2821E00601090F000F01010F000CE
:10543000F210FE101000F200F010D030006010905A
:10544000F010FE101000F200E01010E000F010105C
:10545000F000000000FE3EC0807EFE00E01010E084
:1054600000E01010FE00F00000F000FE00E0101060
:10547000E00000000000000000000000000000004C
:10548000000000000000000000000000000000001C
:10549000000000000000000000000000000000000C
:1054A00000000000000000000000000000000000FC
:1054B00000000000000000000000000000000000EC
:1054C00000000000000000000000000000000000DC
:1054D00000000000000000000000000000000000CC
:1054E00000000000000000000000000000000000BC
:1054F00000000000000000000000000000000000AC
:10550000000000000000000000000000000000009B
:10551000000000000000000000000000000000008B
:10552000000000000000000000000000000000007B
:105530000000000000000000000000000101000069
:10554000000000000000000000010000000000005A
:10555000000000010000000000000000000000004A
:10556000000000000000000000000000000000003B
:105570000000000000002010180886838080FF00D3
:105580000106081020400000100C03FF030400FF78
:10559000919191919191FF0000008060180600FFA9
:1055A0000909090909898989FF000004043C2724A5
:1055B0002424242D36A42424E43F242400000601BE
:1055C000FF010211929252321E3252D29310000009
:1055D00040203F10914961310F010F11214181019C
:1055E00000000000000000000000000000000000BB
:1055F000001010101010F000FFC0004020100C0030
:105600000000484443F2464242EA141312121E12AA
:10561000E20200003061C20400E32428201F2020A1
:105620002826E1000000222A2AAAAAAAAABEAAAA1B
:10563000AAAAAAAA2A2200001090FFD010E0949FE4
:10564000949494949F94E40000002020FF2020086C
:105650000808FE08080808F8000000000000000024
:10566000000000000000000000000000000000003A
:10567000000000000000000000000000000000002A
:10568000000000000000000000000000000000001A
:10569000000000000000000000000000000000000A
:1056A00000000000000000000000000000000000FA
:1056B00000000000000000000000000000000000EA
:1056C00000000000000000000000000000000000DA
:1056D00000000000000000000000000000000003C7
:1056E000040404040300000000010601000000009F
:1056F0000000060404040300000704000304040778
:105700000400070400000304040704060405030062
:105710000004000102040404040201000407040060
:10572000040704000000000000000000000000006A
:105730000000000000000000000000000000000069
:105740000000000000000000000000000000000059
:10575000000000000000000004FC04000004FC0441
:1057600000043CC400C43C0400000000182444446D
:105770008C0020F8200040A0A0C00020F8200020CD
:10578000E00020E000C0A0206000002000F008043D
:1057900004040408F00020F824042CF824040C006D
:1057A00000000000000000000000000000000000F9
:1057B00000000000000000000000000000000000E9
:1057C00000000000000000000000000000000000D9
:1057D00000000003040404040300000000010601AB
:1057E0000000000000000604040403000007040099
:1057F000030404070400070400000304040704066C
:105800000405030000040001020404040402010072
:10581000040704000704000000000000000000006E
:105820000000000000000000000000000000000078
:105830000000000000000000000000000000000068
:1058400000000000000000000000000004FC040054
:105850000004FC0400043CC400C43C04000000003C
:10586000182444448C0020F8200040A0A0C0002050
:10587000F8200020E00020E000C0A0206000002010
:1058800000F0080404040408F00020E04020C000F8
:105890000000000000000000000000000000000008
:1058A00000000000000000000000000000000000F8
:1058B00000000000000000000000000000000000E8
:1058C00000000000000000241505273D05041624F3
:1058D0000000211009060100003F0000030020180D
:1058E0000708300020203F00000004023F0020187D
:1058F000070007182000110D001C20222D20300564
:10590000190000000C0C0000000000000000212124
:105910001109050305091121210000000000000004
:105920000000000000000000000000000000000077
:105930000000000000000000000000000000000067
:10594000407840BC682800BC5048640000C03C203F
:10595000E00000FC40800000E000FC402008080857
:10596000F80808001020FC00404040FC404850006F
:1059700010109050309C3050901010000000C0C0AB
:1059800000000000000000000020242820E0202863
:1059900024200000000000000000000000000000C3
:1059A00000000000000000000000000000000000F7
:1059B0000000000000000000000000241505273D45
:1059C000050416240000211009060100003F000014
:1059D000030020180708300020203F0000000402C8
:1059E0003F002018070007182000110D001C20227E
:1059F0002D203005190000000C0C000000000000F4
:105A00000000012119070101013F0101010000000F
:105A10000000000000000000000000000000000086
:105A20000000000000000000000000000000000076
:105A300000000000407840BC682800BC504864006A
:105A400000C03C20E00000FC40800000E000FC4082
:105A500020080808F80808001020FC00404040FC1E
:105A60004048500010109050309C30509010100062
:105A70000000C0C00000000000000000000808F89E
:105A8000080808F8080800000000000000000000F6
:105A90000000000000000000000000000000000006
:105AA00000000000000000000000000000000604EC
:105AB00004040300030404020000070400000400BF
:105AC00000000000000000000000000000000000D6
:105AD00000000000000000000000000000000000C6
